{
  "address": "0x5FbDB2315678afecb367f032d93F642f64180aa3",
  "abi": [
    {
      "inputs": [
        {
          "internalType": "uint96",
          "name": "_baseFee",
          "type": "uint96"
        },
        {
          "internalType": "uint96",
          "name": "_gasPriceLink",
          "type": "uint96"
        }
      ],
      "stateMutability": "nonpayable",
      "type": "constructor"
    },
    {
      "inputs": [],
      "name": "InsufficientBalance",
      "type": "error"
    },
    {
      "inputs": [],
      "name": "InvalidSubscription",
      "type": "error"
    },
    {
      "inputs": [
        {
          "internalType": "address",
          "name": "owner",
          "type": "address"
        }
      ],
      "name": "MustBeSubOwner",
      "type": "error"
    },
    {
      "anonymous": false,
      "inputs": [
        {
          "indexed": true,
          "internalType": "uint256",
          "name": "requestId",
          "type": "uint256"
        },
        {
          "indexed": false,
          "internalType": "uint256",
          "name": "outputSeed",
          "type": "uint256"
        },
        {
          "indexed": false,
          "internalType": "uint96",
          "name": "payment",
          "type": "uint96"
        },
        {
          "indexed": false,
          "internalType": "bool",
          "name": "success",
          "type": "bool"
        }
      ],
      "name": "RandomWordsFulfilled",
      "type": "event"
    },
    {
      "anonymous": false,
      "inputs": [
        {
          "indexed": true,
          "internalType": "bytes32",
          "name": "keyHash",
          "type": "bytes32"
        },
        {
          "indexed": false,
          "internalType": "uint256",
          "name": "requestId",
          "type": "uint256"
        },
        {
          "indexed": false,
          "internalType": "uint256",
          "name": "preSeed",
          "type": "uint256"
        },
        {
          "indexed": true,
          "internalType": "uint64",
          "name": "subId",
          "type": "uint64"
        },
        {
          "indexed": false,
          "internalType": "uint16",
          "name": "minimumRequestConfirmations",
          "type": "uint16"
        },
        {
          "indexed": false,
          "internalType": "uint32",
          "name": "callbackGasLimit",
          "type": "uint32"
        },
        {
          "indexed": false,
          "internalType": "uint32",
          "name": "numWords",
          "type": "uint32"
        },
        {
          "indexed": true,
          "internalType": "address",
          "name": "sender",
          "type": "address"
        }
      ],
      "name": "RandomWordsRequested",
      "type": "event"
    },
    {
      "anonymous": false,
      "inputs": [
        {
          "indexed": true,
          "internalType": "uint64",
          "name": "subId",
          "type": "uint64"
        },
        {
          "indexed": false,
          "internalType": "address",
          "name": "to",
          "type": "address"
        },
        {
          "indexed": false,
          "internalType": "uint256",
          "name": "amount",
          "type": "uint256"
        }
      ],
      "name": "SubscriptionCanceled",
      "type": "event"
    },
    {
      "anonymous": false,
      "inputs": [
        {
          "indexed": true,
          "internalType": "uint64",
          "name": "subId",
          "type": "uint64"
        },
        {
          "indexed": false,
          "internalType": "address",
          "name": "owner",
          "type": "address"
        }
      ],
      "name": "SubscriptionCreated",
      "type": "event"
    },
    {
      "anonymous": false,
      "inputs": [
        {
          "indexed": true,
          "internalType": "uint64",
          "name": "subId",
          "type": "uint64"
        },
        {
          "indexed": false,
          "internalType": "uint256",
          "name": "oldBalance",
          "type": "uint256"
        },
        {
          "indexed": false,
          "internalType": "uint256",
          "name": "newBalance",
          "type": "uint256"
        }
      ],
      "name": "SubscriptionFunded",
      "type": "event"
    },
    {
      "inputs": [],
      "name": "BASE_FEE",
      "outputs": [
        {
          "internalType": "uint96",
          "name": "",
          "type": "uint96"
        }
      ],
      "stateMutability": "view",
      "type": "function"
    },
    {
      "inputs": [],
      "name": "GAS_PRICE_LINK",
      "outputs": [
        {
          "internalType": "uint96",
          "name": "",
          "type": "uint96"
        }
      ],
      "stateMutability": "view",
      "type": "function"
    },
    {
      "inputs": [
        {
          "internalType": "uint64",
          "name": "_subId",
          "type": "uint64"
        }
      ],
      "name": "acceptSubscriptionOwnerTransfer",
      "outputs": [],
      "stateMutability": "pure",
      "type": "function"
    },
    {
      "inputs": [
        {
          "internalType": "uint64",
          "name": "_subId",
          "type": "uint64"
        },
        {
          "internalType": "address",
          "name": "_consumer",
          "type": "address"
        }
      ],
      "name": "addConsumer",
      "outputs": [],
      "stateMutability": "pure",
      "type": "function"
    },
    {
      "inputs": [
        {
          "internalType": "uint64",
          "name": "_subId",
          "type": "uint64"
        },
        {
          "internalType": "address",
          "name": "_to",
          "type": "address"
        }
      ],
      "name": "cancelSubscription",
      "outputs": [],
      "stateMutability": "nonpayable",
      "type": "function"
    },
    {
      "inputs": [],
      "name": "createSubscription",
      "outputs": [
        {
          "internalType": "uint64",
          "name": "_subId",
          "type": "uint64"
        }
      ],
      "stateMutability": "nonpayable",
      "type": "function"
    },
    {
      "inputs": [
        {
          "internalType": "uint256",
          "name": "_requestId",
          "type": "uint256"
        },
        {
          "internalType": "address",
          "name": "_consumer",
          "type": "address"
        }
      ],
      "name": "fulfillRandomWords",
      "outputs": [],
      "stateMutability": "nonpayable",
      "type": "function"
    },
    {
      "inputs": [
        {
          "internalType": "uint64",
          "name": "_subId",
          "type": "uint64"
        },
        {
          "internalType": "uint96",
          "name": "_amount",
          "type": "uint96"
        }
      ],
      "name": "fundSubscription",
      "outputs": [],
      "stateMutability": "nonpayable",
      "type": "function"
    },
    {
      "inputs": [],
      "name": "getRequestConfig",
      "outputs": [
        {
          "internalType": "uint16",
          "name": "",
          "type": "uint16"
        },
        {
          "internalType": "uint32",
          "name": "",
          "type": "uint32"
        },
        {
          "internalType": "bytes32[]",
          "name": "",
          "type": "bytes32[]"
        }
      ],
      "stateMutability": "pure",
      "type": "function"
    },
    {
      "inputs": [
        {
          "internalType": "uint64",
          "name": "_subId",
          "type": "uint64"
        }
      ],
      "name": "getSubscription",
      "outputs": [
        {
          "internalType": "uint96",
          "name": "balance",
          "type": "uint96"
        },
        {
          "internalType": "uint64",
          "name": "reqCount",
          "type": "uint64"
        },
        {
          "internalType": "address",
          "name": "owner",
          "type": "address"
        },
        {
          "internalType": "address[]",
          "name": "consumers",
          "type": "address[]"
        }
      ],
      "stateMutability": "view",
      "type": "function"
    },
    {
      "inputs": [
        {
          "internalType": "uint64",
          "name": "_subId",
          "type": "uint64"
        },
        {
          "internalType": "address",
          "name": "_consumer",
          "type": "address"
        }
      ],
      "name": "removeConsumer",
      "outputs": [],
      "stateMutability": "pure",
      "type": "function"
    },
    {
      "inputs": [
        {
          "internalType": "bytes32",
          "name": "_keyHash",
          "type": "bytes32"
        },
        {
          "internalType": "uint64",
          "name": "_subId",
          "type": "uint64"
        },
        {
          "internalType": "uint16",
          "name": "_minimumRequestConfirmations",
          "type": "uint16"
        },
        {
          "internalType": "uint32",
          "name": "_callbackGasLimit",
          "type": "uint32"
        },
        {
          "internalType": "uint32",
          "name": "_numWords",
          "type": "uint32"
        }
      ],
      "name": "requestRandomWords",
      "outputs": [
        {
          "internalType": "uint256",
          "name": "",
          "type": "uint256"
        }
      ],
      "stateMutability": "nonpayable",
      "type": "function"
    },
    {
      "inputs": [
        {
          "internalType": "uint64",
          "name": "_subId",
          "type": "uint64"
        },
        {
          "internalType": "address",
          "name": "_newOwner",
          "type": "address"
        }
      ],
      "name": "requestSubscriptionOwnerTransfer",
      "outputs": [],
      "stateMutability": "pure",
      "type": "function"
    }
  ],
  "transactionHash": "0x030ea37824107823b9177abb167a35b7e0a09c6edbf1545df52e87b56581baa4",
  "args": [
    "250000000000000000",
    1000000000
  ],
  "numDeployments": 1,
  "solcInputHash": "965eb70c86d741bc91cce656057c1534",
  "bytecode": "0x60c06040526001805560646002553480156200001a57600080fd5b5060405162002036380380620020368339818101604052810190620000409190620000de565b816bffffffffffffffffffffffff166080816bffffffffffffffffffffffff1681525050806bffffffffffffffffffffffff1660a0816bffffffffffffffffffffffff1681525050505062000125565b600080fd5b60006bffffffffffffffffffffffff82169050919050565b620000b88162000095565b8114620000c457600080fd5b50565b600081519050620000d881620000ad565b92915050565b60008060408385031215620000f857620000f762000090565b5b60006200010885828601620000c7565b92505060206200011b85828601620000c7565b9150509250929050565b60805160a051611edd620001596000396000818161086a0152610cda01526000818161031101526108af0152611edd6000f3fe608060405234801561001057600080fd5b50600436106100ce5760003560e01c8063823597401161008c578063a410347f11610066578063a410347f146101eb578063a47c769614610209578063afc69b531461023c578063d7ae1d3014610258576100ce565b806382359740146101955780639f87fad7146101b1578063a21a23e4146101cd576100ce565b8062012291146100d357806304c357cb146100f35780633d18651e1461010f5780635d3b1d301461012d5780637341c10c1461015d578063808974ff14610179575b600080fd5b6100db610274565b6040516100ea9392919061138c565b60405180910390f35b61010d6004803603810190610108919061146d565b6102d4565b005b61011761030f565b60405161012491906114d4565b60405180910390f35b61014760048036038101906101429190611573565b610333565b6040516101549190611607565b60405180910390f35b6101776004803603810190610172919061146d565b61054e565b005b610193600480360381019061018e919061164e565b610589565b005b6101af60048036038101906101aa919061168e565b610aad565b005b6101cb60048036038101906101c6919061146d565b610ae8565b005b6101d5610b23565b6040516101e291906116ca565b60405180910390f35b6101f3610cd8565b60405161020091906114d4565b60405180910390f35b610223600480360381019061021e919061168e565b610cfc565b60405161023394939291906117b2565b60405180910390f35b6102566004803603810190610251919061182a565b610e9c565b005b610272600480360381019061026d919061146d565b611066565b005b60008060606003621e8480600067ffffffffffffffff81111561029a5761029961186a565b5b6040519080825280602002602001820160405280156102c85781602001602082028036833780820191505090505b50925092509250909192565b6040517f08c379a0000000000000000000000000000000000000000000000000000000008152600401610306906118f6565b60405180910390fd5b7f000000000000000000000000000000000000000000000000000000000000000081565b60008073ffffffffffffffffffffffffffffffffffffffff16600360008767ffffffffffffffff1667ffffffffffffffff16815260200190815260200160002060000160009054906101000a900473ffffffffffffffffffffffffffffffffffffffff1673ffffffffffffffffffffffffffffffffffffffff16036103e4576040517f1f6a65b600000000000000000000000000000000000000000000000000000000815260040160405180910390fd5b6000600160008154809291906103f990611945565b91905055905060006002600081548092919061041490611945565b91905055905060405180606001604052808867ffffffffffffffff1681526020018663ffffffff1681526020018563ffffffff168152506004600084815260200190815260200160002060008201518160000160006101000a81548167ffffffffffffffff021916908367ffffffffffffffff16021790555060208201518160000160086101000a81548163ffffffff021916908363ffffffff160217905550604082015181600001600c6101000a81548163ffffffff021916908363ffffffff1602179055509050503373ffffffffffffffffffffffffffffffffffffffff168767ffffffffffffffff16897f63373d1c4696214b898952999c9aaec57dac1ee2723cec59bea6888f489a977285858b8b8b60405161053895949392919061198d565b60405180910390a4819250505095945050505050565b6040517f08c379a0000000000000000000000000000000000000000000000000000000008152600401610580906118f6565b60405180910390fd5b60005a905060006004600085815260200190815260200160002060000160009054906101000a900467ffffffffffffffff1667ffffffffffffffff1603610605576040517f08c379a00000000000000000000000000000000000000000000000000000000081526004016105fc90611a2c565b60405180910390fd5b6000600460008581526020019081526020016000206040518060600160405290816000820160009054906101000a900467ffffffffffffffff1667ffffffffffffffff1667ffffffffffffffff1681526020016000820160089054906101000a900463ffffffff1663ffffffff1663ffffffff16815260200160008201600c9054906101000a900463ffffffff1663ffffffff1663ffffffff168152505090506000816040015163ffffffff1667ffffffffffffffff8111156106cb576106ca61186a565b5b6040519080825280602002602001820160405280156106f95781602001602082028036833780820191505090505b50905060005b826040015163ffffffff1681101561076f578581604051602001610724929190611a4c565b6040516020818303038152906040528051906020012060001c8282815181106107505761074f611a75565b5b602002602001018181525050808061076790611945565b9150506106ff565b50600080631fe543e360e01b878460405160240161078e929190611b62565b604051602081830303815290604052907bffffffffffffffffffffffffffffffffffffffffffffffffffffffff19166020820180517bffffffffffffffffffffffffffffffffffffffffffffffffffffffff8381831617835250505050905060008673ffffffffffffffffffffffffffffffffffffffff16856020015163ffffffff168360405161081f9190611c0c565b60006040518083038160008787f1925050503d806000811461085d576040519150601f19603f3d011682016040523d82523d6000602084013e610862565b606091505b5050905060007f00000000000000000000000000000000000000000000000000000000000000006bffffffffffffffffffffffff165a886108a39190611c23565b6108ad9190611c57565b7f00000000000000000000000000000000000000000000000000000000000000006bffffffffffffffffffffffff166108e69190611cb1565b9050806bffffffffffffffffffffffff1660036000886000015167ffffffffffffffff1667ffffffffffffffff16815260200190815260200160002060000160149054906101000a90046bffffffffffffffffffffffff166bffffffffffffffffffffffff161015610984576040517ff4d678b800000000000000000000000000000000000000000000000000000000815260040160405180910390fd5b8060036000886000015167ffffffffffffffff1667ffffffffffffffff16815260200190815260200160002060000160148282829054906101000a90046bffffffffffffffffffffffff166109d99190611d07565b92506101000a8154816bffffffffffffffffffffffff02191690836bffffffffffffffffffffffff160217905550600460008a8152602001908152602001600020600080820160006101000a81549067ffffffffffffffff02191690556000820160086101000a81549063ffffffff021916905560008201600c6101000a81549063ffffffff02191690555050887f7dffc5ae5ee4e2e4df1651cf6ad329a73cebdb728f37ea0187b9b17e036756e48a8385604051610a9a93929190611d56565b60405180910390a2505050505050505050565b6040517f08c379a0000000000000000000000000000000000000000000000000000000008152600401610adf906118f6565b60405180910390fd5b6040517f08c379a0000000000000000000000000000000000000000000000000000000008152600401610b1a906118f6565b60405180910390fd5b600080600081819054906101000a900467ffffffffffffffff1680929190610b4a90611d8d565b91906101000a81548167ffffffffffffffff021916908367ffffffffffffffff1602179055505060405180604001604052803373ffffffffffffffffffffffffffffffffffffffff16815260200160006bffffffffffffffffffffffff16815250600360008060009054906101000a900467ffffffffffffffff1667ffffffffffffffff1667ffffffffffffffff16815260200190815260200160002060008201518160000160006101000a81548173ffffffffffffffffffffffffffffffffffffffff021916908373ffffffffffffffffffffffffffffffffffffffff16021790555060208201518160000160146101000a8154816bffffffffffffffffffffffff02191690836bffffffffffffffffffffffff16021790555090505060008054906101000a900467ffffffffffffffff1667ffffffffffffffff167f464722b4166576d3dcbba877b999bc35cf911f4eaf434b7eba68fa113951d0bf33604051610cb69190611dbd565b60405180910390a260008054906101000a900467ffffffffffffffff16905090565b7f000000000000000000000000000000000000000000000000000000000000000081565b60008060006060600073ffffffffffffffffffffffffffffffffffffffff16600360008767ffffffffffffffff1667ffffffffffffffff16815260200190815260200160002060000160009054906101000a900473ffffffffffffffffffffffffffffffffffffffff1673ffffffffffffffffffffffffffffffffffffffff1603610db3576040517f1f6a65b600000000000000000000000000000000000000000000000000000000815260040160405180910390fd5b600360008667ffffffffffffffff1667ffffffffffffffff16815260200190815260200160002060000160149054906101000a90046bffffffffffffffffffffffff166000600360008867ffffffffffffffff1667ffffffffffffffff16815260200190815260200160002060000160009054906101000a900473ffffffffffffffffffffffffffffffffffffffff16600067ffffffffffffffff811115610e5e57610e5d61186a565b5b604051908082528060200260200182016040528015610e8c5781602001602082028036833780820191505090505b5093509350935093509193509193565b600073ffffffffffffffffffffffffffffffffffffffff16600360008467ffffffffffffffff1667ffffffffffffffff16815260200190815260200160002060000160009054906101000a900473ffffffffffffffffffffffffffffffffffffffff1673ffffffffffffffffffffffffffffffffffffffff1603610f4c576040517f1f6a65b600000000000000000000000000000000000000000000000000000000815260040160405180910390fd5b6000600360008467ffffffffffffffff1667ffffffffffffffff16815260200190815260200160002060000160149054906101000a90046bffffffffffffffffffffffff16905081600360008567ffffffffffffffff1667ffffffffffffffff16815260200190815260200160002060000160148282829054906101000a90046bffffffffffffffffffffffff16610fe49190611dd8565b92506101000a8154816bffffffffffffffffffffffff02191690836bffffffffffffffffffffffff1602179055508267ffffffffffffffff167fd39ec07f4e209f627a4c427971473820dc129761ba28de8906bd56f57101d4f882848461104b9190611dd8565b604051611059929190611e55565b60405180910390a2505050565b816000600360008367ffffffffffffffff1667ffffffffffffffff16815260200190815260200160002060000160009054906101000a900473ffffffffffffffffffffffffffffffffffffffff169050600073ffffffffffffffffffffffffffffffffffffffff168173ffffffffffffffffffffffffffffffffffffffff160361111c576040517f1f6a65b600000000000000000000000000000000000000000000000000000000815260040160405180910390fd5b8073ffffffffffffffffffffffffffffffffffffffff163373ffffffffffffffffffffffffffffffffffffffff161461118c57806040517fd8a3fb520000000000000000000000000000000000000000000000000000000081526004016111839190611dbd565b60405180910390fd5b8367ffffffffffffffff167fe8ed5b475a5b5987aa9165e8731bb78043f39eee32ec5a1169a89e27fcd4981584600360008867ffffffffffffffff1667ffffffffffffffff16815260200190815260200160002060000160149054906101000a90046bffffffffffffffffffffffff1660405161120a929190611e7e565b60405180910390a2600360008567ffffffffffffffff1667ffffffffffffffff168152602001908152602001600020600080820160006101000a81549073ffffffffffffffffffffffffffffffffffffffff02191690556000820160146101000a8154906bffffffffffffffffffffffff0219169055505050505050565b600061ffff82169050919050565b61129f81611288565b82525050565b600063ffffffff82169050919050565b6112be816112a5565b82525050565b600081519050919050565b600082825260208201905092915050565b6000819050602082019050919050565b6000819050919050565b611303816112f0565b82525050565b600061131583836112fa565b60208301905092915050565b6000602082019050919050565b6000611339826112c4565b61134381856112cf565b935061134e836112e0565b8060005b8381101561137f5781516113668882611309565b975061137183611321565b925050600181019050611352565b5085935050505092915050565b60006060820190506113a16000830186611296565b6113ae60208301856112b5565b81810360408301526113c0818461132e565b9050949350505050565b600080fd5b600067ffffffffffffffff82169050919050565b6113ec816113cf565b81146113f757600080fd5b50565b600081359050611409816113e3565b92915050565b600073ffffffffffffffffffffffffffffffffffffffff82169050919050565b600061143a8261140f565b9050919050565b61144a8161142f565b811461145557600080fd5b50565b60008135905061146781611441565b92915050565b60008060408385031215611484576114836113ca565b5b6000611492858286016113fa565b92505060206114a385828601611458565b9150509250929050565b60006bffffffffffffffffffffffff82169050919050565b6114ce816114ad565b82525050565b60006020820190506114e960008301846114c5565b92915050565b6114f8816112f0565b811461150357600080fd5b50565b600081359050611515816114ef565b92915050565b61152481611288565b811461152f57600080fd5b50565b6000813590506115418161151b565b92915050565b611550816112a5565b811461155b57600080fd5b50565b60008135905061156d81611547565b92915050565b600080600080600060a0868803121561158f5761158e6113ca565b5b600061159d88828901611506565b95505060206115ae888289016113fa565b94505060406115bf88828901611532565b93505060606115d08882890161155e565b92505060806115e18882890161155e565b9150509295509295909350565b6000819050919050565b611601816115ee565b82525050565b600060208201905061161c60008301846115f8565b92915050565b61162b816115ee565b811461163657600080fd5b50565b60008135905061164881611622565b92915050565b60008060408385031215611665576116646113ca565b5b600061167385828601611639565b925050602061168485828601611458565b9150509250929050565b6000602082840312156116a4576116a36113ca565b5b60006116b2848285016113fa565b91505092915050565b6116c4816113cf565b82525050565b60006020820190506116df60008301846116bb565b92915050565b6116ee8161142f565b82525050565b600081519050919050565b600082825260208201905092915050565b6000819050602082019050919050565b6117298161142f565b82525050565b600061173b8383611720565b60208301905092915050565b6000602082019050919050565b600061175f826116f4565b61176981856116ff565b935061177483611710565b8060005b838110156117a557815161178c888261172f565b975061179783611747565b925050600181019050611778565b5085935050505092915050565b60006080820190506117c760008301876114c5565b6117d460208301866116bb565b6117e160408301856116e5565b81810360608301526117f38184611754565b905095945050505050565b611807816114ad565b811461181257600080fd5b50565b600081359050611824816117fe565b92915050565b60008060408385031215611841576118406113ca565b5b600061184f858286016113fa565b925050602061186085828601611815565b9150509250929050565b7f4e487b7100000000000000000000000000000000000000000000000000000000600052604160045260246000fd5b600082825260208201905092915050565b7f6e6f7420696d706c656d656e7465640000000000000000000000000000000000600082015250565b60006118e0600f83611899565b91506118eb826118aa565b602082019050919050565b6000602082019050818103600083015261190f816118d3565b9050919050565b7f4e487b7100000000000000000000000000000000000000000000000000000000600052601160045260246000fd5b6000611950826115ee565b91507fffffffffffffffffffffffffffffffffffffffffffffffffffffffffffffffff820361198257611981611916565b5b600182019050919050565b600060a0820190506119a260008301886115f8565b6119af60208301876115f8565b6119bc6040830186611296565b6119c960608301856112b5565b6119d660808301846112b5565b9695505050505050565b7f6e6f6e6578697374656e74207265717565737400000000000000000000000000600082015250565b6000611a16601383611899565b9150611a21826119e0565b602082019050919050565b60006020820190508181036000830152611a4581611a09565b9050919050565b6000604082019050611a6160008301856115f8565b611a6e60208301846115f8565b9392505050565b7f4e487b7100000000000000000000000000000000000000000000000000000000600052603260045260246000fd5b600081519050919050565b600082825260208201905092915050565b6000819050602082019050919050565b611ad9816115ee565b82525050565b6000611aeb8383611ad0565b60208301905092915050565b6000602082019050919050565b6000611b0f82611aa4565b611b198185611aaf565b9350611b2483611ac0565b8060005b83811015611b55578151611b3c8882611adf565b9750611b4783611af7565b925050600181019050611b28565b5085935050505092915050565b6000604082019050611b7760008301856115f8565b8181036020830152611b898184611b04565b90509392505050565b600081519050919050565b600081905092915050565b60005b83811015611bc6578082015181840152602081019050611bab565b83811115611bd5576000848401525b50505050565b6000611be682611b92565b611bf08185611b9d565b9350611c00818560208601611ba8565b80840191505092915050565b6000611c188284611bdb565b915081905092915050565b6000611c2e826115ee565b9150611c39836115ee565b925082821015611c4c57611c4b611916565b5b828203905092915050565b6000611c62826115ee565b9150611c6d836115ee565b9250817fffffffffffffffffffffffffffffffffffffffffffffffffffffffffffffffff0483118215151615611ca657611ca5611916565b5b828202905092915050565b6000611cbc826115ee565b9150611cc7836115ee565b9250827fffffffffffffffffffffffffffffffffffffffffffffffffffffffffffffffff03821115611cfc57611cfb611916565b5b828201905092915050565b6000611d12826114ad565b9150611d1d836114ad565b925082821015611d3057611d2f611916565b5b828203905092915050565b60008115159050919050565b611d5081611d3b565b82525050565b6000606082019050611d6b60008301866115f8565b611d7860208301856114c5565b611d856040830184611d47565b949350505050565b6000611d98826113cf565b915067ffffffffffffffff8203611db257611db1611916565b5b600182019050919050565b6000602082019050611dd260008301846116e5565b92915050565b6000611de3826114ad565b9150611dee836114ad565b9250826bffffffffffffffffffffffff03821115611e0f57611e0e611916565b5b828201905092915050565b6000819050919050565b6000611e3f611e3a611e35846114ad565b611e1a565b6115ee565b9050919050565b611e4f81611e24565b82525050565b6000604082019050611e6a6000830185611e46565b611e776020830184611e46565b9392505050565b6000604082019050611e9360008301856116e5565b611ea06020830184611e46565b939250505056fea2646970667358221220ea7418471f1af7e60d45b1ead5e077d23a2bbbe2c5edf4b7dcedb26ddbb2c33f64736f6c634300080f0033",
  "devdoc": {
    "kind": "dev",
    "methods": {
      "createSubscription()": {
        "details": "You can manage the consumer set dynamically with addConsumer/removeConsumer.Note to fund the subscription, use transferAndCall. For exampleLINKTOKEN.transferAndCall(address(COORDINATOR),amount,abi.encode(subId));",
        "returns": {
          "_subId": "- A unique subscription id."
        }
      },
      "fulfillRandomWords(uint256,address)": {
        "details": "This mock uses a simplified formula for calculating payment amount and gas usage, and doesnot account for all edge cases handled in the real VRF coordinator. When making requestsagainst the real coordinator a small amount of additional LINK is required.",
        "params": {
          "_consumer": "the VRF randomness consumer to send the result to",
          "_requestId": "the request to fulfill"
        }
      },
      "fundSubscription(uint64,uint96)": {
        "params": {
          "_amount": "the amount to fund",
          "_subId": "the subscription to fund"
        }
      },
      "getRequestConfig()": {
        "returns": {
          "_0": "minimumRequestConfirmations global min for request confirmations",
          "_1": "maxGasLimit global max for request gas limit",
          "_2": "s_provingKeyHashes list of registered key hashes"
        }
      }
    },
    "version": 1
  },
  "userdoc": {
    "kind": "user",
    "methods": {
      "createSubscription()": {
        "notice": "Create a VRF subscription."
      },
      "fulfillRandomWords(uint256,address)": {
        "notice": "fulfillRandomWords fulfills the given request, sending the random words to the suppliedconsumer."
      },
      "fundSubscription(uint64,uint96)": {
        "notice": "fundSubscription allows funding a subscription with an arbitrary amount for testing."
      },
      "getRequestConfig()": {
        "notice": "Get configuration relevant for making requests"
      }
    },
    "version": 1
  },
  "storageLayout": {
    "storage": [
      {
        "astId": 312,
        "contract": "@chainlink/contracts/src/v0.8/mocks/VRFCoordinatorV2Mock.sol:VRFCoordinatorV2Mock",
        "label": "s_currentSubId",
        "offset": 0,
        "slot": "0",
        "type": "t_uint64"
      },
      {
        "astId": 315,
        "contract": "@chainlink/contracts/src/v0.8/mocks/VRFCoordinatorV2Mock.sol:VRFCoordinatorV2Mock",
        "label": "s_nextRequestId",
        "offset": 0,
        "slot": "1",
        "type": "t_uint256"
      },
      {
        "astId": 318,
        "contract": "@chainlink/contracts/src/v0.8/mocks/VRFCoordinatorV2Mock.sol:VRFCoordinatorV2Mock",
        "label": "s_nextPreSeed",
        "offset": 0,
        "slot": "2",
        "type": "t_uint256"
      },
      {
        "astId": 328,
        "contract": "@chainlink/contracts/src/v0.8/mocks/VRFCoordinatorV2Mock.sol:VRFCoordinatorV2Mock",
        "label": "s_subscriptions",
        "offset": 0,
        "slot": "3",
        "type": "t_mapping(t_uint64,t_struct(Subscription)323_storage)"
      },
      {
        "astId": 340,
        "contract": "@chainlink/contracts/src/v0.8/mocks/VRFCoordinatorV2Mock.sol:VRFCoordinatorV2Mock",
        "label": "s_requests",
        "offset": 0,
        "slot": "4",
        "type": "t_mapping(t_uint256,t_struct(Request)335_storage)"
      }
    ],
    "types": {
      "t_address": {
        "encoding": "inplace",
        "label": "address",
        "numberOfBytes": "20"
      },
      "t_mapping(t_uint256,t_struct(Request)335_storage)": {
        "encoding": "mapping",
        "key": "t_uint256",
        "label": "mapping(uint256 => struct VRFCoordinatorV2Mock.Request)",
        "numberOfBytes": "32",
        "value": "t_struct(Request)335_storage"
      },
      "t_mapping(t_uint64,t_struct(Subscription)323_storage)": {
        "encoding": "mapping",
        "key": "t_uint64",
        "label": "mapping(uint64 => struct VRFCoordinatorV2Mock.Subscription)",
        "numberOfBytes": "32",
        "value": "t_struct(Subscription)323_storage"
      },
      "t_struct(Request)335_storage": {
        "encoding": "inplace",
        "label": "struct VRFCoordinatorV2Mock.Request",
        "members": [
          {
            "astId": 330,
            "contract": "@chainlink/contracts/src/v0.8/mocks/VRFCoordinatorV2Mock.sol:VRFCoordinatorV2Mock",
            "label": "subId",
            "offset": 0,
            "slot": "0",
            "type": "t_uint64"
          },
          {
            "astId": 332,
            "contract": "@chainlink/contracts/src/v0.8/mocks/VRFCoordinatorV2Mock.sol:VRFCoordinatorV2Mock",
            "label": "callbackGasLimit",
            "offset": 8,
            "slot": "0",
            "type": "t_uint32"
          },
          {
            "astId": 334,
            "contract": "@chainlink/contracts/src/v0.8/mocks/VRFCoordinatorV2Mock.sol:VRFCoordinatorV2Mock",
            "label": "numWords",
            "offset": 12,
            "slot": "0",
            "type": "t_uint32"
          }
        ],
        "numberOfBytes": "32"
      },
      "t_struct(Subscription)323_storage": {
        "encoding": "inplace",
        "label": "struct VRFCoordinatorV2Mock.Subscription",
        "members": [
          {
            "astId": 320,
            "contract": "@chainlink/contracts/src/v0.8/mocks/VRFCoordinatorV2Mock.sol:VRFCoordinatorV2Mock",
            "label": "owner",
            "offset": 0,
            "slot": "0",
            "type": "t_address"
          },
          {
            "astId": 322,
            "contract": "@chainlink/contracts/src/v0.8/mocks/VRFCoordinatorV2Mock.sol:VRFCoordinatorV2Mock",
            "label": "balance",
            "offset": 20,
            "slot": "0",
            "type": "t_uint96"
          }
        ],
        "numberOfBytes": "32"
      },
      "t_uint256": {
        "encoding": "inplace",
        "label": "uint256",
        "numberOfBytes": "32"
      },
      "t_uint32": {
        "encoding": "inplace",
        "label": "uint32",
        "numberOfBytes": "4"
      },
      "t_uint64": {
        "encoding": "inplace",
        "label": "uint64",
        "numberOfBytes": "8"
      },
      "t_uint96": {
        "encoding": "inplace",
        "label": "uint96",
        "numberOfBytes": "12"
      }
    }
  }
}