{
  "address": "0x5477f0Ed8396863BB298Ef277c77F53C6c5bD665",
  "abi": [
    {
      "inputs": [
        {
          "internalType": "uint64",
          "name": "_subscriptionId",
          "type": "uint64"
        },
        {
          "internalType": "address",
          "name": "_vrfCoordinator",
          "type": "address"
        },
        {
          "internalType": "bytes32",
          "name": "_keyHask",
          "type": "bytes32"
        },
        {
          "internalType": "string[50]",
          "name": "_characterUris",
          "type": "string[50]"
        }
      ],
      "stateMutability": "nonpayable",
      "type": "constructor"
    },
    {
      "inputs": [
        {
          "internalType": "address",
          "name": "have",
          "type": "address"
        },
        {
          "internalType": "address",
          "name": "want",
          "type": "address"
        }
      ],
      "name": "OnlyCoordinatorCanFulfill",
      "type": "error"
    },
    {
      "anonymous": false,
      "inputs": [
        {
          "indexed": true,
          "internalType": "address",
          "name": "owner",
          "type": "address"
        },
        {
          "indexed": true,
          "internalType": "address",
          "name": "approved",
          "type": "address"
        },
        {
          "indexed": true,
          "internalType": "uint256",
          "name": "tokenId",
          "type": "uint256"
        }
      ],
      "name": "Approval",
      "type": "event"
    },
    {
      "anonymous": false,
      "inputs": [
        {
          "indexed": true,
          "internalType": "address",
          "name": "owner",
          "type": "address"
        },
        {
          "indexed": true,
          "internalType": "address",
          "name": "operator",
          "type": "address"
        },
        {
          "indexed": false,
          "internalType": "bool",
          "name": "approved",
          "type": "bool"
        }
      ],
      "name": "ApprovalForAll",
      "type": "event"
    },
    {
      "anonymous": false,
      "inputs": [
        {
          "indexed": true,
          "internalType": "address",
          "name": "previousOwner",
          "type": "address"
        },
        {
          "indexed": true,
          "internalType": "address",
          "name": "newOwner",
          "type": "address"
        }
      ],
      "name": "OwnershipTransferred",
      "type": "event"
    },
    {
      "anonymous": false,
      "inputs": [
        {
          "indexed": true,
          "internalType": "address",
          "name": "from",
          "type": "address"
        },
        {
          "indexed": true,
          "internalType": "address",
          "name": "to",
          "type": "address"
        },
        {
          "indexed": true,
          "internalType": "uint256",
          "name": "tokenId",
          "type": "uint256"
        }
      ],
      "name": "Transfer",
      "type": "event"
    },
    {
      "inputs": [
        {
          "internalType": "address",
          "name": "to",
          "type": "address"
        },
        {
          "internalType": "uint256",
          "name": "tokenId",
          "type": "uint256"
        }
      ],
      "name": "approve",
      "outputs": [],
      "stateMutability": "nonpayable",
      "type": "function"
    },
    {
      "inputs": [
        {
          "internalType": "address",
          "name": "owner",
          "type": "address"
        }
      ],
      "name": "balanceOf",
      "outputs": [
        {
          "internalType": "uint256",
          "name": "",
          "type": "uint256"
        }
      ],
      "stateMutability": "view",
      "type": "function"
    },
    {
      "inputs": [
        {
          "internalType": "uint256",
          "name": "tokenId",
          "type": "uint256"
        }
      ],
      "name": "getApproved",
      "outputs": [
        {
          "internalType": "address",
          "name": "",
          "type": "address"
        }
      ],
      "stateMutability": "view",
      "type": "function"
    },
    {
      "inputs": [],
      "name": "initializeRandoms",
      "outputs": [],
      "stateMutability": "nonpayable",
      "type": "function"
    },
    {
      "inputs": [
        {
          "internalType": "address",
          "name": "owner",
          "type": "address"
        },
        {
          "internalType": "address",
          "name": "operator",
          "type": "address"
        }
      ],
      "name": "isApprovedForAll",
      "outputs": [
        {
          "internalType": "bool",
          "name": "",
          "type": "bool"
        }
      ],
      "stateMutability": "view",
      "type": "function"
    },
    {
      "inputs": [],
      "name": "mint",
      "outputs": [
        {
          "internalType": "uint256",
          "name": "",
          "type": "uint256"
        }
      ],
      "stateMutability": "nonpayable",
      "type": "function"
    },
    {
      "inputs": [],
      "name": "name",
      "outputs": [
        {
          "internalType": "string",
          "name": "",
          "type": "string"
        }
      ],
      "stateMutability": "view",
      "type": "function"
    },
    {
      "inputs": [],
      "name": "owner",
      "outputs": [
        {
          "internalType": "address",
          "name": "",
          "type": "address"
        }
      ],
      "stateMutability": "view",
      "type": "function"
    },
    {
      "inputs": [
        {
          "internalType": "uint256",
          "name": "tokenId",
          "type": "uint256"
        }
      ],
      "name": "ownerOf",
      "outputs": [
        {
          "internalType": "address",
          "name": "",
          "type": "address"
        }
      ],
      "stateMutability": "view",
      "type": "function"
    },
    {
      "inputs": [
        {
          "internalType": "uint256",
          "name": "",
          "type": "uint256"
        }
      ],
      "name": "randomWords",
      "outputs": [
        {
          "internalType": "uint256",
          "name": "",
          "type": "uint256"
        }
      ],
      "stateMutability": "view",
      "type": "function"
    },
    {
      "inputs": [
        {
          "internalType": "uint256",
          "name": "requestId",
          "type": "uint256"
        },
        {
          "internalType": "uint256[]",
          "name": "randomWords",
          "type": "uint256[]"
        }
      ],
      "name": "rawFulfillRandomWords",
      "outputs": [],
      "stateMutability": "nonpayable",
      "type": "function"
    },
    {
      "inputs": [],
      "name": "renounceOwnership",
      "outputs": [],
      "stateMutability": "nonpayable",
      "type": "function"
    },
    {
      "inputs": [],
      "name": "requestId",
      "outputs": [
        {
          "internalType": "uint256",
          "name": "",
          "type": "uint256"
        }
      ],
      "stateMutability": "view",
      "type": "function"
    },
    {
      "inputs": [
        {
          "internalType": "address",
          "name": "from",
          "type": "address"
        },
        {
          "internalType": "address",
          "name": "to",
          "type": "address"
        },
        {
          "internalType": "uint256",
          "name": "tokenId",
          "type": "uint256"
        }
      ],
      "name": "safeTransferFrom",
      "outputs": [],
      "stateMutability": "nonpayable",
      "type": "function"
    },
    {
      "inputs": [
        {
          "internalType": "address",
          "name": "from",
          "type": "address"
        },
        {
          "internalType": "address",
          "name": "to",
          "type": "address"
        },
        {
          "internalType": "uint256",
          "name": "tokenId",
          "type": "uint256"
        },
        {
          "internalType": "bytes",
          "name": "data",
          "type": "bytes"
        }
      ],
      "name": "safeTransferFrom",
      "outputs": [],
      "stateMutability": "nonpayable",
      "type": "function"
    },
    {
      "inputs": [
        {
          "internalType": "address",
          "name": "operator",
          "type": "address"
        },
        {
          "internalType": "bool",
          "name": "approved",
          "type": "bool"
        }
      ],
      "name": "setApprovalForAll",
      "outputs": [],
      "stateMutability": "nonpayable",
      "type": "function"
    },
    {
      "inputs": [
        {
          "internalType": "bytes4",
          "name": "interfaceId",
          "type": "bytes4"
        }
      ],
      "name": "supportsInterface",
      "outputs": [
        {
          "internalType": "bool",
          "name": "",
          "type": "bool"
        }
      ],
      "stateMutability": "view",
      "type": "function"
    },
    {
      "inputs": [],
      "name": "symbol",
      "outputs": [
        {
          "internalType": "string",
          "name": "",
          "type": "string"
        }
      ],
      "stateMutability": "view",
      "type": "function"
    },
    {
      "inputs": [],
      "name": "tokenCounter",
      "outputs": [
        {
          "internalType": "uint256",
          "name": "",
          "type": "uint256"
        }
      ],
      "stateMutability": "view",
      "type": "function"
    },
    {
      "inputs": [
        {
          "internalType": "uint256",
          "name": "tokenId",
          "type": "uint256"
        }
      ],
      "name": "tokenURI",
      "outputs": [
        {
          "internalType": "string",
          "name": "",
          "type": "string"
        }
      ],
      "stateMutability": "view",
      "type": "function"
    },
    {
      "inputs": [
        {
          "internalType": "address",
          "name": "from",
          "type": "address"
        },
        {
          "internalType": "address",
          "name": "to",
          "type": "address"
        },
        {
          "internalType": "uint256",
          "name": "tokenId",
          "type": "uint256"
        }
      ],
      "name": "transferFrom",
      "outputs": [],
      "stateMutability": "nonpayable",
      "type": "function"
    },
    {
      "inputs": [
        {
          "internalType": "address",
          "name": "newOwner",
          "type": "address"
        }
      ],
      "name": "transferOwnership",
      "outputs": [],
      "stateMutability": "nonpayable",
      "type": "function"
    }
  ],
  "transactionHash": "0x086e099849132db73f10b4ffc2b8c2c2f2cd96d04d85fef10a4198ccc2dd48f6",
  "args": [
    9245,
    "0x6168499c0cFfCaCD319c818142124B7A15E857ab",
    "0xd89b2bf150e3b9e13446986e571fb9cab24b13cea0a43ea20a6049a85cc807cc",
    [
      "https://ipfs.io/ipfs/QmVrisQ5DV9kD7HH6Ky4PrxJYg7EiaWqxnLUoQ3np6KFUu?filename=loopjrdev.json",
      "https://ipfs.io/ipfs/QmZ8NoCGjuDU5SA4dzGfyFRpnfWQAzGjCKwkuCSBCudgC2?filename=loopssrdev.json",
      "https://ipfs.io/ipfs/Qme61k7jPUsuZoEcihtBB6fMN2FaaEkwr8zpcukfkdn1d7?filename=loopsrdev.json",
      "https://ipfs.io/ipfs/QmPmY4DXRHL4msahmAmSUyY9HeJJR8udv6fv6rv3TmaPao?filename=loopssrpm.json",
      "https://ipfs.io/ipfs/Qmakb3sFwsXk6D15dbLYTpQHbuoT1vdGtYdYc7hKWmsWTT?filename=loopsrpm.json",
      "https://ipfs.io/ipfs/QmVrisQ5DV9kD7HH6Ky4PrxJYg7EiaWqxnLUoQ3np6KFUu?filename=loopjrdev.json",
      "https://ipfs.io/ipfs/QmZ8NoCGjuDU5SA4dzGfyFRpnfWQAzGjCKwkuCSBCudgC2?filename=loopssrdev.json",
      "https://ipfs.io/ipfs/Qme61k7jPUsuZoEcihtBB6fMN2FaaEkwr8zpcukfkdn1d7?filename=loopsrdev.json",
      "https://ipfs.io/ipfs/QmPmY4DXRHL4msahmAmSUyY9HeJJR8udv6fv6rv3TmaPao?filename=loopssrpm.json",
      "https://ipfs.io/ipfs/Qmakb3sFwsXk6D15dbLYTpQHbuoT1vdGtYdYc7hKWmsWTT?filename=loopsrpm.json",
      "https://ipfs.io/ipfs/QmVrisQ5DV9kD7HH6Ky4PrxJYg7EiaWqxnLUoQ3np6KFUu?filename=loopjrdev.json",
      "https://ipfs.io/ipfs/QmZ8NoCGjuDU5SA4dzGfyFRpnfWQAzGjCKwkuCSBCudgC2?filename=loopssrdev.json",
      "https://ipfs.io/ipfs/Qme61k7jPUsuZoEcihtBB6fMN2FaaEkwr8zpcukfkdn1d7?filename=loopsrdev.json",
      "https://ipfs.io/ipfs/QmPmY4DXRHL4msahmAmSUyY9HeJJR8udv6fv6rv3TmaPao?filename=loopssrpm.json",
      "https://ipfs.io/ipfs/Qmakb3sFwsXk6D15dbLYTpQHbuoT1vdGtYdYc7hKWmsWTT?filename=loopsrpm.json",
      "https://ipfs.io/ipfs/QmVrisQ5DV9kD7HH6Ky4PrxJYg7EiaWqxnLUoQ3np6KFUu?filename=loopjrdev.json",
      "https://ipfs.io/ipfs/QmZ8NoCGjuDU5SA4dzGfyFRpnfWQAzGjCKwkuCSBCudgC2?filename=loopssrdev.json",
      "https://ipfs.io/ipfs/Qme61k7jPUsuZoEcihtBB6fMN2FaaEkwr8zpcukfkdn1d7?filename=loopsrdev.json",
      "https://ipfs.io/ipfs/QmPmY4DXRHL4msahmAmSUyY9HeJJR8udv6fv6rv3TmaPao?filename=loopssrpm.json",
      "https://ipfs.io/ipfs/Qmakb3sFwsXk6D15dbLYTpQHbuoT1vdGtYdYc7hKWmsWTT?filename=loopsrpm.json",
      "https://ipfs.io/ipfs/QmVrisQ5DV9kD7HH6Ky4PrxJYg7EiaWqxnLUoQ3np6KFUu?filename=loopjrdev.json",
      "https://ipfs.io/ipfs/QmZ8NoCGjuDU5SA4dzGfyFRpnfWQAzGjCKwkuCSBCudgC2?filename=loopssrdev.json",
      "https://ipfs.io/ipfs/Qme61k7jPUsuZoEcihtBB6fMN2FaaEkwr8zpcukfkdn1d7?filename=loopsrdev.json",
      "https://ipfs.io/ipfs/QmPmY4DXRHL4msahmAmSUyY9HeJJR8udv6fv6rv3TmaPao?filename=loopssrpm.json",
      "https://ipfs.io/ipfs/Qmakb3sFwsXk6D15dbLYTpQHbuoT1vdGtYdYc7hKWmsWTT?filename=loopsrpm.json",
      "https://ipfs.io/ipfs/QmVrisQ5DV9kD7HH6Ky4PrxJYg7EiaWqxnLUoQ3np6KFUu?filename=loopjrdev.json",
      "https://ipfs.io/ipfs/QmZ8NoCGjuDU5SA4dzGfyFRpnfWQAzGjCKwkuCSBCudgC2?filename=loopssrdev.json",
      "https://ipfs.io/ipfs/Qme61k7jPUsuZoEcihtBB6fMN2FaaEkwr8zpcukfkdn1d7?filename=loopsrdev.json",
      "https://ipfs.io/ipfs/QmPmY4DXRHL4msahmAmSUyY9HeJJR8udv6fv6rv3TmaPao?filename=loopssrpm.json",
      "https://ipfs.io/ipfs/Qmakb3sFwsXk6D15dbLYTpQHbuoT1vdGtYdYc7hKWmsWTT?filename=loopsrpm.json",
      "https://ipfs.io/ipfs/QmVrisQ5DV9kD7HH6Ky4PrxJYg7EiaWqxnLUoQ3np6KFUu?filename=loopjrdev.json",
      "https://ipfs.io/ipfs/QmZ8NoCGjuDU5SA4dzGfyFRpnfWQAzGjCKwkuCSBCudgC2?filename=loopssrdev.json",
      "https://ipfs.io/ipfs/Qme61k7jPUsuZoEcihtBB6fMN2FaaEkwr8zpcukfkdn1d7?filename=loopsrdev.json",
      "https://ipfs.io/ipfs/QmPmY4DXRHL4msahmAmSUyY9HeJJR8udv6fv6rv3TmaPao?filename=loopssrpm.json",
      "https://ipfs.io/ipfs/Qmakb3sFwsXk6D15dbLYTpQHbuoT1vdGtYdYc7hKWmsWTT?filename=loopsrpm.json",
      "https://ipfs.io/ipfs/QmVrisQ5DV9kD7HH6Ky4PrxJYg7EiaWqxnLUoQ3np6KFUu?filename=loopjrdev.json",
      "https://ipfs.io/ipfs/QmZ8NoCGjuDU5SA4dzGfyFRpnfWQAzGjCKwkuCSBCudgC2?filename=loopssrdev.json",
      "https://ipfs.io/ipfs/Qme61k7jPUsuZoEcihtBB6fMN2FaaEkwr8zpcukfkdn1d7?filename=loopsrdev.json",
      "https://ipfs.io/ipfs/QmPmY4DXRHL4msahmAmSUyY9HeJJR8udv6fv6rv3TmaPao?filename=loopssrpm.json",
      "https://ipfs.io/ipfs/Qmakb3sFwsXk6D15dbLYTpQHbuoT1vdGtYdYc7hKWmsWTT?filename=loopsrpm.json",
      "https://ipfs.io/ipfs/QmVrisQ5DV9kD7HH6Ky4PrxJYg7EiaWqxnLUoQ3np6KFUu?filename=loopjrdev.json",
      "https://ipfs.io/ipfs/QmZ8NoCGjuDU5SA4dzGfyFRpnfWQAzGjCKwkuCSBCudgC2?filename=loopssrdev.json",
      "https://ipfs.io/ipfs/Qme61k7jPUsuZoEcihtBB6fMN2FaaEkwr8zpcukfkdn1d7?filename=loopsrdev.json",
      "https://ipfs.io/ipfs/QmPmY4DXRHL4msahmAmSUyY9HeJJR8udv6fv6rv3TmaPao?filename=loopssrpm.json",
      "https://ipfs.io/ipfs/Qmakb3sFwsXk6D15dbLYTpQHbuoT1vdGtYdYc7hKWmsWTT?filename=loopsrpm.json",
      "https://ipfs.io/ipfs/QmVrisQ5DV9kD7HH6Ky4PrxJYg7EiaWqxnLUoQ3np6KFUu?filename=loopjrdev.json",
      "https://ipfs.io/ipfs/QmZ8NoCGjuDU5SA4dzGfyFRpnfWQAzGjCKwkuCSBCudgC2?filename=loopssrdev.json",
      "https://ipfs.io/ipfs/Qme61k7jPUsuZoEcihtBB6fMN2FaaEkwr8zpcukfkdn1d7?filename=loopsrdev.json",
      "https://ipfs.io/ipfs/QmPmY4DXRHL4msahmAmSUyY9HeJJR8udv6fv6rv3TmaPao?filename=loopssrpm.json",
      "https://ipfs.io/ipfs/Qmakb3sFwsXk6D15dbLYTpQHbuoT1vdGtYdYc7hKWmsWTT?filename=loopsrpm.json"
    ]
  ],
  "numDeployments": 2,
  "solcInputHash": "4d01e43f83d8b9b25f6e06d651cead88",
  "bytecode": "0x60e06040526000600760146101000a81548160ff0219169083151502179055506000600b553480156200003157600080fd5b506040516200443038038062004430833981810160405281019062000057919062000777565b6040518060400160405280600781526020017f4c6f6f704e4654000000000000000000000000000000000000000000000000008152506040518060400160405280600781526020017f4c4f4f504e465400000000000000000000000000000000000000000000000000815250848073ffffffffffffffffffffffffffffffffffffffff1660808173ffffffffffffffffffffffffffffffffffffffff16815250505081600090816200010a919062000a53565b5080600190816200011c919062000a53565b5050506200013f620001336200025060201b60201c565b6200025860201b60201c565b603263ffffffff166032146200018c576040517f08c379a0000000000000000000000000000000000000000000000000000000008152600401620001839062000bc1565b60405180910390fd5b82600860006101000a81548173ffffffffffffffffffffffffffffffffffffffff021916908373ffffffffffffffffffffffffffffffffffffffff16021790555083600860146101000a81548167ffffffffffffffff021916908367ffffffffffffffff1602179055508160c081815250508273ffffffffffffffffffffffffffffffffffffffff1660a08173ffffffffffffffffffffffffffffffffffffffff168152505080600c906032620002459291906200031e565b505050505062000be3565b600033905090565b6000600760009054906101000a900473ffffffffffffffffffffffffffffffffffffffff16905081600760006101000a81548173ffffffffffffffffffffffffffffffffffffffff021916908373ffffffffffffffffffffffffffffffffffffffff1602179055508173ffffffffffffffffffffffffffffffffffffffff168173ffffffffffffffffffffffffffffffffffffffff167f8be0079c531659141344cd1fd0a4f28419497f9722a3daafe3b4186f6b6457e060405160405180910390a35050565b8280548282559060005260206000209081019282156200036b579160200282015b828111156200036a57825182908162000359919062000a53565b50916020019190600101906200033f565b5b5090506200037a91906200037e565b5090565b5b80821115620003a25760008181620003989190620003a6565b506001016200037f565b5090565b508054620003b49062000842565b6000825580601f10620003c85750620003e9565b601f016020900490600052602060002090810190620003e89190620003ec565b5b50565b5b8082111562000407576000816000905550600101620003ed565b5090565b6000604051905090565b600080fd5b600080fd5b600067ffffffffffffffff82169050919050565b6200043e816200041f565b81146200044a57600080fd5b50565b6000815190506200045e8162000433565b92915050565b600073ffffffffffffffffffffffffffffffffffffffff82169050919050565b6000620004918262000464565b9050919050565b620004a38162000484565b8114620004af57600080fd5b50565b600081519050620004c38162000498565b92915050565b6000819050919050565b620004de81620004c9565b8114620004ea57600080fd5b50565b600081519050620004fe81620004d3565b92915050565b600080fd5b6000601f19601f8301169050919050565b7f4e487b7100000000000000000000000000000000000000000000000000000000600052604160045260246000fd5b620005548262000509565b810181811067ffffffffffffffff821117156200057657620005756200051a565b5b80604052505050565b60006200058b6200040b565b905062000599828262000549565b919050565b600067ffffffffffffffff821115620005bc57620005bb6200051a565b5b602082029050919050565b600080fd5b600080fd5b600067ffffffffffffffff821115620005ef57620005ee6200051a565b5b620005fa8262000509565b9050602081019050919050565b60005b83811015620006275780820151818401526020810190506200060a565b8381111562000637576000848401525b50505050565b6000620006546200064e84620005d1565b6200057f565b905082815260208101848484011115620006735762000672620005cc565b5b6200068084828562000607565b509392505050565b600082601f830112620006a0576200069f62000504565b5b8151620006b28482602086016200063d565b91505092915050565b6000620006d2620006cc846200059e565b6200057f565b90508060208402830185811115620006ef57620006ee620005c7565b5b835b818110156200073d57805167ffffffffffffffff81111562000718576200071762000504565b5b80860162000727898262000688565b85526020850194505050602081019050620006f1565b5050509392505050565b600082601f8301126200075f576200075e62000504565b5b60326200076e848285620006bb565b91505092915050565b6000806000806080858703121562000794576200079362000415565b5b6000620007a4878288016200044d565b9450506020620007b787828801620004b2565b9350506040620007ca87828801620004ed565b925050606085015167ffffffffffffffff811115620007ee57620007ed6200041a565b5b620007fc8782880162000747565b91505092959194509250565b600081519050919050565b7f4e487b7100000000000000000000000000000000000000000000000000000000600052602260045260246000fd5b600060028204905060018216806200085b57607f821691505b60208210810362000871576200087062000813565b5b50919050565b60008190508160005260206000209050919050565b60006020601f8301049050919050565b600082821b905092915050565b600060088302620008db7fffffffffffffffffffffffffffffffffffffffffffffffffffffffffffffffff826200089c565b620008e786836200089c565b95508019841693508086168417925050509392505050565b6000819050919050565b6000819050919050565b6000620009346200092e6200092884620008ff565b62000909565b620008ff565b9050919050565b6000819050919050565b620009508362000913565b620009686200095f826200093b565b848454620008a9565b825550505050565b600090565b6200097f62000970565b6200098c81848462000945565b505050565b5b81811015620009b457620009a860008262000975565b60018101905062000992565b5050565b601f82111562000a0357620009cd8162000877565b620009d8846200088c565b81016020851015620009e8578190505b62000a00620009f7856200088c565b83018262000991565b50505b505050565b600082821c905092915050565b600062000a286000198460080262000a08565b1980831691505092915050565b600062000a43838362000a15565b9150826002028217905092915050565b62000a5e8262000808565b67ffffffffffffffff81111562000a7a5762000a796200051a565b5b62000a86825462000842565b62000a93828285620009b8565b600060209050601f83116001811462000acb576000841562000ab6578287015190505b62000ac2858262000a35565b86555062000b32565b601f19841662000adb8662000877565b60005b8281101562000b055784890151825560018201915060208501945060208101905062000ade565b8683101562000b25578489015162000b21601f89168262000a15565b8355505b6001600288020188555050505b505050505050565b600082825260208201905092915050565b7f52616e646f6d7320616e6420555249206172726179732068617665206469666660008201527f6572656e74206c656e6774680000000000000000000000000000000000000000602082015250565b600062000ba9602c8362000b3a565b915062000bb68262000b4b565b604082019050919050565b6000602082019050818103600083015262000bdc8162000b9a565b9050919050565b60805160a05160c05161381962000c17600039600061199d015260005050600081816107cd015261082101526138196000f3fe608060405234801561001057600080fd5b50600436106101415760003560e01c8063715018a6116100b8578063beff730f1161007c578063beff730f1461034e578063c87b56dd1461037e578063d082e381146103ae578063e51edc94146103cc578063e985e9c5146103d6578063f2fde38b1461040657610141565b8063715018a6146102d05780638da5cb5b146102da57806395d89b41146102f8578063a22cb46514610316578063b88d4fde1461033257610141565b80631249c58b1161010a5780631249c58b146101fe5780631fe543e31461021c57806323b872dd1461023857806342842e0e146102545780636352211e1461027057806370a08231146102a057610141565b80626d6cae1461014657806301ffc9a71461016457806306fdde0314610194578063081812fc146101b2578063095ea7b3146101e2575b600080fd5b61014e610422565b60405161015b91906120d4565b60405180910390f35b61017e6004803603810190610179919061215b565b610428565b60405161018b91906121a3565b60405180910390f35b61019c61050a565b6040516101a99190612257565b60405180910390f35b6101cc60048036038101906101c791906122a5565b61059c565b6040516101d99190612313565b60405180910390f35b6101fc60048036038101906101f7919061235a565b6105e2565b005b6102066106f9565b60405161021391906120d4565b60405180910390f35b610236600480360381019061023191906124e2565b6107cb565b005b610252600480360381019061024d919061253e565b61088b565b005b61026e6004803603810190610269919061253e565b6108eb565b005b61028a600480360381019061028591906122a5565b61090b565b6040516102979190612313565b60405180910390f35b6102ba60048036038101906102b59190612591565b6109bc565b6040516102c791906120d4565b60405180910390f35b6102d8610a73565b005b6102e2610a87565b6040516102ef9190612313565b60405180910390f35b610300610ab1565b60405161030d9190612257565b60405180910390f35b610330600480360381019061032b91906125ea565b610b43565b005b61034c600480360381019061034791906126df565b610b59565b005b610368600480360381019061036391906122a5565b610bbb565b60405161037591906120d4565b60405180910390f35b610398600480360381019061039391906122a5565b610bdf565b6040516103a59190612257565b60405180910390f35b6103b6610cf1565b6040516103c391906120d4565b60405180910390f35b6103d4610cf7565b005b6103f060048036038101906103eb9190612762565b610d74565b6040516103fd91906121a3565b60405180910390f35b610420600480360381019061041b9190612591565b610e08565b005b600a5481565b60007f80ac58cd000000000000000000000000000000000000000000000000000000007bffffffffffffffffffffffffffffffffffffffffffffffffffffffff1916827bffffffffffffffffffffffffffffffffffffffffffffffffffffffff191614806104f357507f5b5e139f000000000000000000000000000000000000000000000000000000007bffffffffffffffffffffffffffffffffffffffffffffffffffffffff1916827bffffffffffffffffffffffffffffffffffffffffffffffffffffffff1916145b80610503575061050282610e8b565b5b9050919050565b606060008054610519906127d1565b80601f0160208091040260200160405190810160405280929190818152602001828054610545906127d1565b80156105925780601f1061056757610100808354040283529160200191610592565b820191906000526020600020905b81548152906001019060200180831161057557829003601f168201915b5050505050905090565b60006105a782610ef5565b6004600083815260200190815260200160002060009054906101000a900473ffffffffffffffffffffffffffffffffffffffff169050919050565b60006105ed8261090b565b90508073ffffffffffffffffffffffffffffffffffffffff168373ffffffffffffffffffffffffffffffffffffffff160361065d576040517f08c379a000000000000000000000000000000000000000000000000000000000815260040161065490612874565b60405180910390fd5b8073ffffffffffffffffffffffffffffffffffffffff1661067c610f40565b73ffffffffffffffffffffffffffffffffffffffff1614806106ab57506106aa816106a5610f40565b610d74565b5b6106ea576040517f08c379a00000000000000000000000000000000000000000000000000000000081526004016106e190612906565b60405180910390fd5b6106f48383610f48565b505050565b600080600c8054905011610742576040517f08c379a000000000000000000000000000000000000000000000000000000000815260040161073990612972565b60405180910390fd5b60006009805490501161078a576040517f08c379a0000000000000000000000000000000000000000000000000000000008152600401610781906129de565b60405180910390fd5b61079633600b54611001565b6107a9600b546107a461101f565b61124f565b6001600b60008282546107bc9190612a2d565b92505081905550600b54905090565b7f000000000000000000000000000000000000000000000000000000000000000073ffffffffffffffffffffffffffffffffffffffff163373ffffffffffffffffffffffffffffffffffffffff161461087d57337f00000000000000000000000000000000000000000000000000000000000000006040517f1cf993f4000000000000000000000000000000000000000000000000000000008152600401610874929190612a83565b60405180910390fd5b61088782826112bc565b5050565b61089c610896610f40565b826112d7565b6108db576040517f08c379a00000000000000000000000000000000000000000000000000000000081526004016108d290612b1e565b60405180910390fd5b6108e683838361136c565b505050565b61090683838360405180602001604052806000815250610b59565b505050565b6000806002600084815260200190815260200160002060009054906101000a900473ffffffffffffffffffffffffffffffffffffffff169050600073ffffffffffffffffffffffffffffffffffffffff168173ffffffffffffffffffffffffffffffffffffffff16036109b3576040517f08c379a00000000000000000000000000000000000000000000000000000000081526004016109aa90612b8a565b60405180910390fd5b80915050919050565b60008073ffffffffffffffffffffffffffffffffffffffff168273ffffffffffffffffffffffffffffffffffffffff1603610a2c576040517f08c379a0000000000000000000000000000000000000000000000000000000008152600401610a2390612c1c565b60405180910390fd5b600360008373ffffffffffffffffffffffffffffffffffffffff1673ffffffffffffffffffffffffffffffffffffffff168152602001908152602001600020549050919050565b610a7b6115d2565b610a856000611650565b565b6000600760009054906101000a900473ffffffffffffffffffffffffffffffffffffffff16905090565b606060018054610ac0906127d1565b80601f0160208091040260200160405190810160405280929190818152602001828054610aec906127d1565b8015610b395780601f10610b0e57610100808354040283529160200191610b39565b820191906000526020600020905b815481529060010190602001808311610b1c57829003601f168201915b5050505050905090565b610b55610b4e610f40565b8383611716565b5050565b610b6a610b64610f40565b836112d7565b610ba9576040517f08c379a0000000000000000000000000000000000000000000000000000000008152600401610ba090612b1e565b60405180910390fd5b610bb584848484611882565b50505050565b60098181548110610bcb57600080fd5b906000526020600020016000915090505481565b6060610bea82610ef5565b6000600660008481526020019081526020016000208054610c0a906127d1565b80601f0160208091040260200160405190810160405280929190818152602001828054610c36906127d1565b8015610c835780601f10610c5857610100808354040283529160200191610c83565b820191906000526020600020905b815481529060010190602001808311610c6657829003601f168201915b505050505090506000610c946118de565b90506000815103610ca9578192505050610cec565b600082511115610cde578082604051602001610cc6929190612c78565b60405160208183030381529060405292505050610cec565b610ce7846118f5565b925050505b919050565b600b5481565b610cff6115d2565b600760149054906101000a900460ff1615610d4f576040517f08c379a0000000000000000000000000000000000000000000000000000000008152600401610d4690612ce8565b60405180910390fd5b610d5761195d565b6001600760146101000a81548160ff021916908315150217905550565b6000600560008473ffffffffffffffffffffffffffffffffffffffff1673ffffffffffffffffffffffffffffffffffffffff16815260200190815260200160002060008373ffffffffffffffffffffffffffffffffffffffff1673ffffffffffffffffffffffffffffffffffffffff16815260200190815260200160002060009054906101000a900460ff16905092915050565b610e106115d2565b600073ffffffffffffffffffffffffffffffffffffffff168173ffffffffffffffffffffffffffffffffffffffff1603610e7f576040517f08c379a0000000000000000000000000000000000000000000000000000000008152600401610e7690612d7a565b60405180910390fd5b610e8881611650565b50565b60007f01ffc9a7000000000000000000000000000000000000000000000000000000007bffffffffffffffffffffffffffffffffffffffffffffffffffffffff1916827bffffffffffffffffffffffffffffffffffffffffffffffffffffffff1916149050919050565b610efe81611a5d565b610f3d576040517f08c379a0000000000000000000000000000000000000000000000000000000008152600401610f3490612b8a565b60405180910390fd5b50565b600033905090565b816004600083815260200190815260200160002060006101000a81548173ffffffffffffffffffffffffffffffffffffffff021916908373ffffffffffffffffffffffffffffffffffffffff160217905550808273ffffffffffffffffffffffffffffffffffffffff16610fbb8361090b565b73ffffffffffffffffffffffffffffffffffffffff167f8c5be1e5ebec7d5bd14f71427d1e84f3dd0314c0f7b2291e5b200ac8c7c3b92560405160405180910390a45050565b61101b828260405180602001604052806000815250611ac9565b5050565b60606000600c80549050600960008154811061103e5761103d612d9a565b5b90600052602060002001546110539190612df8565b90506000600c8260ff168154811061106e5761106d612d9a565b5b906000526020600020018054611083906127d1565b80601f01602080910402602001604051908101604052809291908181526020018280546110af906127d1565b80156110fc5780601f106110d1576101008083540402835291602001916110fc565b820191906000526020600020905b8154815290600101906020018083116110df57829003601f168201915b505050505090506000600c6001600c805490506111199190612e29565b8154811061112a57611129612d9a565b5b90600052602060002001805461113f906127d1565b80601f016020809104026020016040519081016040528092919081815260200182805461116b906127d1565b80156111b85780601f1061118d576101008083540402835291602001916111b8565b820191906000526020600020905b81548152906001019060200180831161119b57829003601f168201915b5050505050905080600c8460ff16815481106111d7576111d6612d9a565b5b9060005260206000200190816111ed9190613009565b50600c805480611200576111ff6130db565b5b60019003818190600052602060002001600061121c9190612011565b905560098054806112305761122f6130db565b5b6001900381819060005260206000200160009055905581935050505090565b61125882611a5d565b611297576040517f08c379a000000000000000000000000000000000000000000000000000000000815260040161128e9061317c565b60405180910390fd5b806006600084815260200190815260200160002090816112b79190613009565b505050565b80600990805190602001906112d2929190612051565b505050565b6000806112e38361090b565b90508073ffffffffffffffffffffffffffffffffffffffff168473ffffffffffffffffffffffffffffffffffffffff16148061132557506113248185610d74565b5b8061136357508373ffffffffffffffffffffffffffffffffffffffff1661134b8461059c565b73ffffffffffffffffffffffffffffffffffffffff16145b91505092915050565b8273ffffffffffffffffffffffffffffffffffffffff1661138c8261090b565b73ffffffffffffffffffffffffffffffffffffffff16146113e2576040517f08c379a00000000000000000000000000000000000000000000000000000000081526004016113d99061320e565b60405180910390fd5b600073ffffffffffffffffffffffffffffffffffffffff168273ffffffffffffffffffffffffffffffffffffffff1603611451576040517f08c379a0000000000000000000000000000000000000000000000000000000008152600401611448906132a0565b60405180910390fd5b61145c838383611b24565b611467600082610f48565b6001600360008573ffffffffffffffffffffffffffffffffffffffff1673ffffffffffffffffffffffffffffffffffffffff16815260200190815260200160002060008282546114b79190612e29565b925050819055506001600360008473ffffffffffffffffffffffffffffffffffffffff1673ffffffffffffffffffffffffffffffffffffffff168152602001908152602001600020600082825461150e9190612a2d565b92505081905550816002600083815260200190815260200160002060006101000a81548173ffffffffffffffffffffffffffffffffffffffff021916908373ffffffffffffffffffffffffffffffffffffffff160217905550808273ffffffffffffffffffffffffffffffffffffffff168473ffffffffffffffffffffffffffffffffffffffff167fddf252ad1be2c89b69c2b068fc378daa952ba7f163c4a11628f55a4df523b3ef60405160405180910390a46115cd838383611b29565b505050565b6115da610f40565b73ffffffffffffffffffffffffffffffffffffffff166115f8610a87565b73ffffffffffffffffffffffffffffffffffffffff161461164e576040517f08c379a00000000000000000000000000000000000000000000000000000000081526004016116459061330c565b60405180910390fd5b565b6000600760009054906101000a900473ffffffffffffffffffffffffffffffffffffffff16905081600760006101000a81548173ffffffffffffffffffffffffffffffffffffffff021916908373ffffffffffffffffffffffffffffffffffffffff1602179055508173ffffffffffffffffffffffffffffffffffffffff168173ffffffffffffffffffffffffffffffffffffffff167f8be0079c531659141344cd1fd0a4f28419497f9722a3daafe3b4186f6b6457e060405160405180910390a35050565b8173ffffffffffffffffffffffffffffffffffffffff168373ffffffffffffffffffffffffffffffffffffffff1603611784576040517f08c379a000000000000000000000000000000000000000000000000000000000815260040161177b90613378565b60405180910390fd5b80600560008573ffffffffffffffffffffffffffffffffffffffff1673ffffffffffffffffffffffffffffffffffffffff16815260200190815260200160002060008473ffffffffffffffffffffffffffffffffffffffff1673ffffffffffffffffffffffffffffffffffffffff16815260200190815260200160002060006101000a81548160ff0219169083151502179055508173ffffffffffffffffffffffffffffffffffffffff168373ffffffffffffffffffffffffffffffffffffffff167f17307eab39ab6107e8899845ad3d59bd9653f200f220920489ca2b5937696c318360405161187591906121a3565b60405180910390a3505050565b61188d84848461136c565b61189984848484611b2e565b6118d8576040517f08c379a00000000000000000000000000000000000000000000000000000000081526004016118cf9061340a565b60405180910390fd5b50505050565b606060405180602001604052806000815250905090565b606061190082610ef5565b600061190a6118de565b9050600081511161192a5760405180602001604052806000815250611955565b8061193484611cb5565b604051602001611945929190612c78565b6040516020818303038152906040525b915050919050565b600860009054906101000a900473ffffffffffffffffffffffffffffffffffffffff1673ffffffffffffffffffffffffffffffffffffffff16635d3b1d307f0000000000000000000000000000000000000000000000000000000000000000600860149054906101000a900467ffffffffffffffff166003600a60326119e3919061343a565b614e206119f09190613474565b60326040518663ffffffff1660e01b8152600401611a1295949392919061351a565b6020604051808303816000875af1158015611a31573d6000803e3d6000fd5b505050506040513d601f19601f82011682018060405250810190611a559190613582565b600a81905550565b60008073ffffffffffffffffffffffffffffffffffffffff166002600084815260200190815260200160002060009054906101000a900473ffffffffffffffffffffffffffffffffffffffff1673ffffffffffffffffffffffffffffffffffffffff1614159050919050565b611ad38383611e15565b611ae06000848484611b2e565b611b1f576040517f08c379a0000000000000000000000000000000000000000000000000000000008152600401611b169061340a565b60405180910390fd5b505050565b505050565b505050565b6000611b4f8473ffffffffffffffffffffffffffffffffffffffff16611fee565b15611ca8578373ffffffffffffffffffffffffffffffffffffffff1663150b7a02611b78610f40565b8786866040518563ffffffff1660e01b8152600401611b9a9493929190613604565b6020604051808303816000875af1925050508015611bd657506040513d601f19601f82011682018060405250810190611bd39190613665565b60015b611c58573d8060008114611c06576040519150601f19603f3d011682016040523d82523d6000602084013e611c0b565b606091505b506000815103611c50576040517f08c379a0000000000000000000000000000000000000000000000000000000008152600401611c479061340a565b60405180910390fd5b805181602001fd5b63150b7a0260e01b7bffffffffffffffffffffffffffffffffffffffffffffffffffffffff1916817bffffffffffffffffffffffffffffffffffffffffffffffffffffffff191614915050611cad565b600190505b949350505050565b606060008203611cfc576040518060400160405280600181526020017f30000000000000000000000000000000000000000000000000000000000000008152509050611e10565b600082905060005b60008214611d2e578080611d1790613692565b915050600a82611d2791906136da565b9150611d04565b60008167ffffffffffffffff811115611d4a57611d4961239f565b5b6040519080825280601f01601f191660200182016040528015611d7c5781602001600182028036833780820191505090505b5090505b60008514611e0957600182611d959190612e29565b9150600a85611da49190612df8565b6030611db09190612a2d565b60f81b818381518110611dc657611dc5612d9a565b5b60200101907effffffffffffffffffffffffffffffffffffffffffffffffffffffffffffff1916908160001a905350600a85611e0291906136da565b9450611d80565b8093505050505b919050565b600073ffffffffffffffffffffffffffffffffffffffff168273ffffffffffffffffffffffffffffffffffffffff1603611e84576040517f08c379a0000000000000000000000000000000000000000000000000000000008152600401611e7b90613757565b60405180910390fd5b611e8d81611a5d565b15611ecd576040517f08c379a0000000000000000000000000000000000000000000000000000000008152600401611ec4906137c3565b60405180910390fd5b611ed960008383611b24565b6001600360008473ffffffffffffffffffffffffffffffffffffffff1673ffffffffffffffffffffffffffffffffffffffff1681526020019081526020016000206000828254611f299190612a2d565b92505081905550816002600083815260200190815260200160002060006101000a81548173ffffffffffffffffffffffffffffffffffffffff021916908373ffffffffffffffffffffffffffffffffffffffff160217905550808273ffffffffffffffffffffffffffffffffffffffff16600073ffffffffffffffffffffffffffffffffffffffff167fddf252ad1be2c89b69c2b068fc378daa952ba7f163c4a11628f55a4df523b3ef60405160405180910390a4611fea60008383611b29565b5050565b6000808273ffffffffffffffffffffffffffffffffffffffff163b119050919050565b50805461201d906127d1565b6000825580601f1061202f575061204e565b601f01602090049060005260206000209081019061204d919061209e565b5b50565b82805482825590600052602060002090810192821561208d579160200282015b8281111561208c578251825591602001919060010190612071565b5b50905061209a919061209e565b5090565b5b808211156120b757600081600090555060010161209f565b5090565b6000819050919050565b6120ce816120bb565b82525050565b60006020820190506120e960008301846120c5565b92915050565b6000604051905090565b600080fd5b600080fd5b60007fffffffff0000000000000000000000000000000000000000000000000000000082169050919050565b61213881612103565b811461214357600080fd5b50565b6000813590506121558161212f565b92915050565b600060208284031215612171576121706120f9565b5b600061217f84828501612146565b91505092915050565b60008115159050919050565b61219d81612188565b82525050565b60006020820190506121b86000830184612194565b92915050565b600081519050919050565b600082825260208201905092915050565b60005b838110156121f85780820151818401526020810190506121dd565b83811115612207576000848401525b50505050565b6000601f19601f8301169050919050565b6000612229826121be565b61223381856121c9565b93506122438185602086016121da565b61224c8161220d565b840191505092915050565b60006020820190508181036000830152612271818461221e565b905092915050565b612282816120bb565b811461228d57600080fd5b50565b60008135905061229f81612279565b92915050565b6000602082840312156122bb576122ba6120f9565b5b60006122c984828501612290565b91505092915050565b600073ffffffffffffffffffffffffffffffffffffffff82169050919050565b60006122fd826122d2565b9050919050565b61230d816122f2565b82525050565b60006020820190506123286000830184612304565b92915050565b612337816122f2565b811461234257600080fd5b50565b6000813590506123548161232e565b92915050565b60008060408385031215612371576123706120f9565b5b600061237f85828601612345565b925050602061239085828601612290565b9150509250929050565b600080fd5b7f4e487b7100000000000000000000000000000000000000000000000000000000600052604160045260246000fd5b6123d78261220d565b810181811067ffffffffffffffff821117156123f6576123f561239f565b5b80604052505050565b60006124096120ef565b905061241582826123ce565b919050565b600067ffffffffffffffff8211156124355761243461239f565b5b602082029050602081019050919050565b600080fd5b600061245e6124598461241a565b6123ff565b9050808382526020820190506020840283018581111561248157612480612446565b5b835b818110156124aa57806124968882612290565b845260208401935050602081019050612483565b5050509392505050565b600082601f8301126124c9576124c861239a565b5b81356124d984826020860161244b565b91505092915050565b600080604083850312156124f9576124f86120f9565b5b600061250785828601612290565b925050602083013567ffffffffffffffff811115612528576125276120fe565b5b612534858286016124b4565b9150509250929050565b600080600060608486031215612557576125566120f9565b5b600061256586828701612345565b935050602061257686828701612345565b925050604061258786828701612290565b9150509250925092565b6000602082840312156125a7576125a66120f9565b5b60006125b584828501612345565b91505092915050565b6125c781612188565b81146125d257600080fd5b50565b6000813590506125e4816125be565b92915050565b60008060408385031215612601576126006120f9565b5b600061260f85828601612345565b9250506020612620858286016125d5565b9150509250929050565b600080fd5b600067ffffffffffffffff82111561264a5761264961239f565b5b6126538261220d565b9050602081019050919050565b82818337600083830152505050565b600061268261267d8461262f565b6123ff565b90508281526020810184848401111561269e5761269d61262a565b5b6126a9848285612660565b509392505050565b600082601f8301126126c6576126c561239a565b5b81356126d684826020860161266f565b91505092915050565b600080600080608085870312156126f9576126f86120f9565b5b600061270787828801612345565b945050602061271887828801612345565b935050604061272987828801612290565b925050606085013567ffffffffffffffff81111561274a576127496120fe565b5b612756878288016126b1565b91505092959194509250565b60008060408385031215612779576127786120f9565b5b600061278785828601612345565b925050602061279885828601612345565b9150509250929050565b7f4e487b7100000000000000000000000000000000000000000000000000000000600052602260045260246000fd5b600060028204905060018216806127e957607f821691505b6020821081036127fc576127fb6127a2565b5b50919050565b7f4552433732313a20617070726f76616c20746f2063757272656e74206f776e6560008201527f7200000000000000000000000000000000000000000000000000000000000000602082015250565b600061285e6021836121c9565b915061286982612802565b604082019050919050565b6000602082019050818103600083015261288d81612851565b9050919050565b7f4552433732313a20617070726f76652063616c6c6572206973206e6f7420746f60008201527f6b656e206f776e6572206e6f7220617070726f76656420666f7220616c6c0000602082015250565b60006128f0603e836121c9565b91506128fb82612894565b604082019050919050565b6000602082019050818103600083015261291f816128e3565b9050919050565b7f4e6f20617661696c61626c65205552497320746f206265206d696e7465640000600082015250565b600061295c601e836121c9565b915061296782612926565b602082019050919050565b6000602082019050818103600083015261298b8161294f565b9050919050565b7f4e6f20617661696c61626c652072616e646f6d20776f72647300000000000000600082015250565b60006129c86019836121c9565b91506129d382612992565b602082019050919050565b600060208201905081810360008301526129f7816129bb565b9050919050565b7f4e487b7100000000000000000000000000000000000000000000000000000000600052601160045260246000fd5b6000612a38826120bb565b9150612a43836120bb565b9250827fffffffffffffffffffffffffffffffffffffffffffffffffffffffffffffffff03821115612a7857612a776129fe565b5b828201905092915050565b6000604082019050612a986000830185612304565b612aa56020830184612304565b9392505050565b7f4552433732313a2063616c6c6572206973206e6f7420746f6b656e206f776e6560008201527f72206e6f7220617070726f766564000000000000000000000000000000000000602082015250565b6000612b08602e836121c9565b9150612b1382612aac565b604082019050919050565b60006020820190508181036000830152612b3781612afb565b9050919050565b7f4552433732313a20696e76616c696420746f6b656e2049440000000000000000600082015250565b6000612b746018836121c9565b9150612b7f82612b3e565b602082019050919050565b60006020820190508181036000830152612ba381612b67565b9050919050565b7f4552433732313a2061646472657373207a65726f206973206e6f74206120766160008201527f6c6964206f776e65720000000000000000000000000000000000000000000000602082015250565b6000612c066029836121c9565b9150612c1182612baa565b604082019050919050565b60006020820190508181036000830152612c3581612bf9565b9050919050565b600081905092915050565b6000612c52826121be565b612c5c8185612c3c565b9350612c6c8185602086016121da565b80840191505092915050565b6000612c848285612c47565b9150612c908284612c47565b91508190509392505050565b7f52616e646f6d7320616c726561647920696e697469616c697a65640000000000600082015250565b6000612cd2601b836121c9565b9150612cdd82612c9c565b602082019050919050565b60006020820190508181036000830152612d0181612cc5565b9050919050565b7f4f776e61626c653a206e6577206f776e657220697320746865207a65726f206160008201527f6464726573730000000000000000000000000000000000000000000000000000602082015250565b6000612d646026836121c9565b9150612d6f82612d08565b604082019050919050565b60006020820190508181036000830152612d9381612d57565b9050919050565b7f4e487b7100000000000000000000000000000000000000000000000000000000600052603260045260246000fd5b7f4e487b7100000000000000000000000000000000000000000000000000000000600052601260045260246000fd5b6000612e03826120bb565b9150612e0e836120bb565b925082612e1e57612e1d612dc9565b5b828206905092915050565b6000612e34826120bb565b9150612e3f836120bb565b925082821015612e5257612e516129fe565b5b828203905092915050565b60008190508160005260206000209050919050565b60006020601f8301049050919050565b600082821b905092915050565b600060088302612ebf7fffffffffffffffffffffffffffffffffffffffffffffffffffffffffffffffff82612e82565b612ec98683612e82565b95508019841693508086168417925050509392505050565b6000819050919050565b6000612f06612f01612efc846120bb565b612ee1565b6120bb565b9050919050565b6000819050919050565b612f2083612eeb565b612f34612f2c82612f0d565b848454612e8f565b825550505050565b600090565b612f49612f3c565b612f54818484612f17565b505050565b5b81811015612f7857612f6d600082612f41565b600181019050612f5a565b5050565b601f821115612fbd57612f8e81612e5d565b612f9784612e72565b81016020851015612fa6578190505b612fba612fb285612e72565b830182612f59565b50505b505050565b600082821c905092915050565b6000612fe060001984600802612fc2565b1980831691505092915050565b6000612ff98383612fcf565b9150826002028217905092915050565b613012826121be565b67ffffffffffffffff81111561302b5761302a61239f565b5b61303582546127d1565b613040828285612f7c565b600060209050601f8311600181146130735760008415613061578287015190505b61306b8582612fed565b8655506130d3565b601f19841661308186612e5d565b60005b828110156130a957848901518255600182019150602085019450602081019050613084565b868310156130c657848901516130c2601f891682612fcf565b8355505b6001600288020188555050505b505050505050565b7f4e487b7100000000000000000000000000000000000000000000000000000000600052603160045260246000fd5b7f45524337323155524953746f726167653a2055524920736574206f66206e6f6e60008201527f6578697374656e7420746f6b656e000000000000000000000000000000000000602082015250565b6000613166602e836121c9565b91506131718261310a565b604082019050919050565b6000602082019050818103600083015261319581613159565b9050919050565b7f4552433732313a207472616e736665722066726f6d20696e636f72726563742060008201527f6f776e6572000000000000000000000000000000000000000000000000000000602082015250565b60006131f86025836121c9565b91506132038261319c565b604082019050919050565b60006020820190508181036000830152613227816131eb565b9050919050565b7f4552433732313a207472616e7366657220746f20746865207a65726f2061646460008201527f7265737300000000000000000000000000000000000000000000000000000000602082015250565b600061328a6024836121c9565b91506132958261322e565b604082019050919050565b600060208201905081810360008301526132b98161327d565b9050919050565b7f4f776e61626c653a2063616c6c6572206973206e6f7420746865206f776e6572600082015250565b60006132f66020836121c9565b9150613301826132c0565b602082019050919050565b60006020820190508181036000830152613325816132e9565b9050919050565b7f4552433732313a20617070726f766520746f2063616c6c657200000000000000600082015250565b60006133626019836121c9565b915061336d8261332c565b602082019050919050565b6000602082019050818103600083015261339181613355565b9050919050565b7f4552433732313a207472616e7366657220746f206e6f6e20455243373231526560008201527f63656976657220696d706c656d656e7465720000000000000000000000000000602082015250565b60006133f46032836121c9565b91506133ff82613398565b604082019050919050565b60006020820190508181036000830152613423816133e7565b9050919050565b600063ffffffff82169050919050565b60006134458261342a565b91506134508361342a565b92508263ffffffff03821115613469576134686129fe565b5b828201905092915050565b600061347f8261342a565b915061348a8361342a565b92508163ffffffff04831182151516156134a7576134a66129fe565b5b828202905092915050565b6000819050919050565b6134c5816134b2565b82525050565b600067ffffffffffffffff82169050919050565b6134e8816134cb565b82525050565b600061ffff82169050919050565b613505816134ee565b82525050565b6135148161342a565b82525050565b600060a08201905061352f60008301886134bc565b61353c60208301876134df565b61354960408301866134fc565b613556606083018561350b565b613563608083018461350b565b9695505050505050565b60008151905061357c81612279565b92915050565b600060208284031215613598576135976120f9565b5b60006135a68482850161356d565b91505092915050565b600081519050919050565b600082825260208201905092915050565b60006135d6826135af565b6135e081856135ba565b93506135f08185602086016121da565b6135f98161220d565b840191505092915050565b60006080820190506136196000830187612304565b6136266020830186612304565b61363360408301856120c5565b818103606083015261364581846135cb565b905095945050505050565b60008151905061365f8161212f565b92915050565b60006020828403121561367b5761367a6120f9565b5b600061368984828501613650565b91505092915050565b600061369d826120bb565b91507fffffffffffffffffffffffffffffffffffffffffffffffffffffffffffffffff82036136cf576136ce6129fe565b5b600182019050919050565b60006136e5826120bb565b91506136f0836120bb565b925082613700576136ff612dc9565b5b828204905092915050565b7f4552433732313a206d696e7420746f20746865207a65726f2061646472657373600082015250565b60006137416020836121c9565b915061374c8261370b565b602082019050919050565b6000602082019050818103600083015261377081613734565b9050919050565b7f4552433732313a20746f6b656e20616c7265616479206d696e74656400000000600082015250565b60006137ad601c836121c9565b91506137b882613777565b602082019050919050565b600060208201905081810360008301526137dc816137a0565b905091905056fea26469706673582212203d119499842aaec039cdad1d366155a3a98890a9e4d81c60e6ee9f42236c812264736f6c634300080f0033",
  "devdoc": {
    "kind": "dev",
    "methods": {
      "approve(address,uint256)": {
        "details": "See {IERC721-approve}."
      },
      "balanceOf(address)": {
        "details": "See {IERC721-balanceOf}."
      },
      "getApproved(uint256)": {
        "details": "See {IERC721-getApproved}."
      },
      "isApprovedForAll(address,address)": {
        "details": "See {IERC721-isApprovedForAll}."
      },
      "name()": {
        "details": "See {IERC721Metadata-name}."
      },
      "owner()": {
        "details": "Returns the address of the current owner."
      },
      "ownerOf(uint256)": {
        "details": "See {IERC721-ownerOf}."
      },
      "renounceOwnership()": {
        "details": "Leaves the contract without owner. It will not be possible to call `onlyOwner` functions anymore. Can only be called by the current owner. NOTE: Renouncing ownership will leave the contract without an owner, thereby removing any functionality that is only available to the owner."
      },
      "safeTransferFrom(address,address,uint256)": {
        "details": "See {IERC721-safeTransferFrom}."
      },
      "safeTransferFrom(address,address,uint256,bytes)": {
        "details": "See {IERC721-safeTransferFrom}."
      },
      "setApprovalForAll(address,bool)": {
        "details": "See {IERC721-setApprovalForAll}."
      },
      "supportsInterface(bytes4)": {
        "details": "See {IERC165-supportsInterface}."
      },
      "symbol()": {
        "details": "See {IERC721Metadata-symbol}."
      },
      "tokenURI(uint256)": {
        "details": "See {IERC721Metadata-tokenURI}."
      },
      "transferFrom(address,address,uint256)": {
        "details": "See {IERC721-transferFrom}."
      },
      "transferOwnership(address)": {
        "details": "Transfers ownership of the contract to a new account (`newOwner`). Can only be called by the current owner."
      }
    },
    "version": 1
  },
  "userdoc": {
    "kind": "user",
    "methods": {},
    "version": 1
  },
  "storageLayout": {
    "storage": [
      {
        "astId": 285,
        "contract": "contracts/LoopNFT.sol:LoopNFT",
        "label": "_name",
        "offset": 0,
        "slot": "0",
        "type": "t_string_storage"
      },
      {
        "astId": 287,
        "contract": "contracts/LoopNFT.sol:LoopNFT",
        "label": "_symbol",
        "offset": 0,
        "slot": "1",
        "type": "t_string_storage"
      },
      {
        "astId": 291,
        "contract": "contracts/LoopNFT.sol:LoopNFT",
        "label": "_owners",
        "offset": 0,
        "slot": "2",
        "type": "t_mapping(t_uint256,t_address)"
      },
      {
        "astId": 295,
        "contract": "contracts/LoopNFT.sol:LoopNFT",
        "label": "_balances",
        "offset": 0,
        "slot": "3",
        "type": "t_mapping(t_address,t_uint256)"
      },
      {
        "astId": 299,
        "contract": "contracts/LoopNFT.sol:LoopNFT",
        "label": "_tokenApprovals",
        "offset": 0,
        "slot": "4",
        "type": "t_mapping(t_uint256,t_address)"
      },
      {
        "astId": 305,
        "contract": "contracts/LoopNFT.sol:LoopNFT",
        "label": "_operatorApprovals",
        "offset": 0,
        "slot": "5",
        "type": "t_mapping(t_address,t_mapping(t_address,t_bool))"
      },
      {
        "astId": 1273,
        "contract": "contracts/LoopNFT.sol:LoopNFT",
        "label": "_tokenURIs",
        "offset": 0,
        "slot": "6",
        "type": "t_mapping(t_uint256,t_string_storage)"
      },
      {
        "astId": 154,
        "contract": "contracts/LoopNFT.sol:LoopNFT",
        "label": "_owner",
        "offset": 0,
        "slot": "7",
        "type": "t_address"
      },
      {
        "astId": 2006,
        "contract": "contracts/LoopNFT.sol:LoopNFT",
        "label": "vrfInitialized",
        "offset": 20,
        "slot": "7",
        "type": "t_bool"
      },
      {
        "astId": 2009,
        "contract": "contracts/LoopNFT.sol:LoopNFT",
        "label": "COORDINATOR",
        "offset": 0,
        "slot": "8",
        "type": "t_contract(VRFCoordinatorV2Interface)146"
      },
      {
        "astId": 2011,
        "contract": "contracts/LoopNFT.sol:LoopNFT",
        "label": "subscriptionId",
        "offset": 20,
        "slot": "8",
        "type": "t_uint64"
      },
      {
        "astId": 2032,
        "contract": "contracts/LoopNFT.sol:LoopNFT",
        "label": "randomWords",
        "offset": 0,
        "slot": "9",
        "type": "t_array(t_uint256)dyn_storage"
      },
      {
        "astId": 2034,
        "contract": "contracts/LoopNFT.sol:LoopNFT",
        "label": "requestId",
        "offset": 0,
        "slot": "10",
        "type": "t_uint256"
      },
      {
        "astId": 2037,
        "contract": "contracts/LoopNFT.sol:LoopNFT",
        "label": "tokenCounter",
        "offset": 0,
        "slot": "11",
        "type": "t_uint256"
      },
      {
        "astId": 2040,
        "contract": "contracts/LoopNFT.sol:LoopNFT",
        "label": "characterUris",
        "offset": 0,
        "slot": "12",
        "type": "t_array(t_string_storage)dyn_storage"
      }
    ],
    "types": {
      "t_address": {
        "encoding": "inplace",
        "label": "address",
        "numberOfBytes": "20"
      },
      "t_array(t_string_storage)dyn_storage": {
        "base": "t_string_storage",
        "encoding": "dynamic_array",
        "label": "string[]",
        "numberOfBytes": "32"
      },
      "t_array(t_uint256)dyn_storage": {
        "base": "t_uint256",
        "encoding": "dynamic_array",
        "label": "uint256[]",
        "numberOfBytes": "32"
      },
      "t_bool": {
        "encoding": "inplace",
        "label": "bool",
        "numberOfBytes": "1"
      },
      "t_contract(VRFCoordinatorV2Interface)146": {
        "encoding": "inplace",
        "label": "contract VRFCoordinatorV2Interface",
        "numberOfBytes": "20"
      },
      "t_mapping(t_address,t_bool)": {
        "encoding": "mapping",
        "key": "t_address",
        "label": "mapping(address => bool)",
        "numberOfBytes": "32",
        "value": "t_bool"
      },
      "t_mapping(t_address,t_mapping(t_address,t_bool))": {
        "encoding": "mapping",
        "key": "t_address",
        "label": "mapping(address => mapping(address => bool))",
        "numberOfBytes": "32",
        "value": "t_mapping(t_address,t_bool)"
      },
      "t_mapping(t_address,t_uint256)": {
        "encoding": "mapping",
        "key": "t_address",
        "label": "mapping(address => uint256)",
        "numberOfBytes": "32",
        "value": "t_uint256"
      },
      "t_mapping(t_uint256,t_address)": {
        "encoding": "mapping",
        "key": "t_uint256",
        "label": "mapping(uint256 => address)",
        "numberOfBytes": "32",
        "value": "t_address"
      },
      "t_mapping(t_uint256,t_string_storage)": {
        "encoding": "mapping",
        "key": "t_uint256",
        "label": "mapping(uint256 => string)",
        "numberOfBytes": "32",
        "value": "t_string_storage"
      },
      "t_string_storage": {
        "encoding": "bytes",
        "label": "string",
        "numberOfBytes": "32"
      },
      "t_uint256": {
        "encoding": "inplace",
        "label": "uint256",
        "numberOfBytes": "32"
      },
      "t_uint64": {
        "encoding": "inplace",
        "label": "uint64",
        "numberOfBytes": "8"
      }
    }
  }
}