{
  "address": "0xAb754d93f5a4b6B179AB79e9F74235B80D439F5b",
  "abi": [
    {
      "inputs": [],
      "stateMutability": "nonpayable",
      "type": "constructor"
    },
    {
      "anonymous": false,
      "inputs": [
        {
          "indexed": true,
          "internalType": "address",
          "name": "owner",
          "type": "address"
        },
        {
          "indexed": true,
          "internalType": "address",
          "name": "approved",
          "type": "address"
        },
        {
          "indexed": true,
          "internalType": "uint256",
          "name": "tokenId",
          "type": "uint256"
        }
      ],
      "name": "Approval",
      "type": "event"
    },
    {
      "anonymous": false,
      "inputs": [
        {
          "indexed": true,
          "internalType": "address",
          "name": "owner",
          "type": "address"
        },
        {
          "indexed": true,
          "internalType": "address",
          "name": "operator",
          "type": "address"
        },
        {
          "indexed": false,
          "internalType": "bool",
          "name": "approved",
          "type": "bool"
        }
      ],
      "name": "ApprovalForAll",
      "type": "event"
    },
    {
      "anonymous": false,
      "inputs": [
        {
          "indexed": true,
          "internalType": "address",
          "name": "from",
          "type": "address"
        },
        {
          "indexed": true,
          "internalType": "address",
          "name": "to",
          "type": "address"
        },
        {
          "indexed": true,
          "internalType": "uint256",
          "name": "tokenId",
          "type": "uint256"
        }
      ],
      "name": "Transfer",
      "type": "event"
    },
    {
      "inputs": [
        {
          "internalType": "address",
          "name": "to",
          "type": "address"
        },
        {
          "internalType": "uint256",
          "name": "tokenId",
          "type": "uint256"
        }
      ],
      "name": "approve",
      "outputs": [],
      "stateMutability": "nonpayable",
      "type": "function"
    },
    {
      "inputs": [
        {
          "internalType": "address",
          "name": "owner",
          "type": "address"
        }
      ],
      "name": "balanceOf",
      "outputs": [
        {
          "internalType": "uint256",
          "name": "",
          "type": "uint256"
        }
      ],
      "stateMutability": "view",
      "type": "function"
    },
    {
      "inputs": [
        {
          "internalType": "uint256",
          "name": "tokenId",
          "type": "uint256"
        }
      ],
      "name": "getApproved",
      "outputs": [
        {
          "internalType": "address",
          "name": "",
          "type": "address"
        }
      ],
      "stateMutability": "view",
      "type": "function"
    },
    {
      "inputs": [],
      "name": "getTokenCounter",
      "outputs": [
        {
          "internalType": "uint256",
          "name": "",
          "type": "uint256"
        }
      ],
      "stateMutability": "view",
      "type": "function"
    },
    {
      "inputs": [
        {
          "internalType": "address",
          "name": "owner",
          "type": "address"
        },
        {
          "internalType": "address",
          "name": "operator",
          "type": "address"
        }
      ],
      "name": "isApprovedForAll",
      "outputs": [
        {
          "internalType": "bool",
          "name": "",
          "type": "bool"
        }
      ],
      "stateMutability": "view",
      "type": "function"
    },
    {
      "inputs": [
        {
          "internalType": "string",
          "name": "tokenURI",
          "type": "string"
        }
      ],
      "name": "mint",
      "outputs": [
        {
          "internalType": "uint256",
          "name": "",
          "type": "uint256"
        }
      ],
      "stateMutability": "nonpayable",
      "type": "function"
    },
    {
      "inputs": [],
      "name": "name",
      "outputs": [
        {
          "internalType": "string",
          "name": "",
          "type": "string"
        }
      ],
      "stateMutability": "view",
      "type": "function"
    },
    {
      "inputs": [
        {
          "internalType": "uint256",
          "name": "tokenId",
          "type": "uint256"
        }
      ],
      "name": "ownerOf",
      "outputs": [
        {
          "internalType": "address",
          "name": "",
          "type": "address"
        }
      ],
      "stateMutability": "view",
      "type": "function"
    },
    {
      "inputs": [
        {
          "internalType": "address",
          "name": "from",
          "type": "address"
        },
        {
          "internalType": "address",
          "name": "to",
          "type": "address"
        },
        {
          "internalType": "uint256",
          "name": "tokenId",
          "type": "uint256"
        }
      ],
      "name": "safeTransferFrom",
      "outputs": [],
      "stateMutability": "nonpayable",
      "type": "function"
    },
    {
      "inputs": [
        {
          "internalType": "address",
          "name": "from",
          "type": "address"
        },
        {
          "internalType": "address",
          "name": "to",
          "type": "address"
        },
        {
          "internalType": "uint256",
          "name": "tokenId",
          "type": "uint256"
        },
        {
          "internalType": "bytes",
          "name": "data",
          "type": "bytes"
        }
      ],
      "name": "safeTransferFrom",
      "outputs": [],
      "stateMutability": "nonpayable",
      "type": "function"
    },
    {
      "inputs": [
        {
          "internalType": "address",
          "name": "operator",
          "type": "address"
        },
        {
          "internalType": "bool",
          "name": "approved",
          "type": "bool"
        }
      ],
      "name": "setApprovalForAll",
      "outputs": [],
      "stateMutability": "nonpayable",
      "type": "function"
    },
    {
      "inputs": [
        {
          "internalType": "bytes4",
          "name": "interfaceId",
          "type": "bytes4"
        }
      ],
      "name": "supportsInterface",
      "outputs": [
        {
          "internalType": "bool",
          "name": "",
          "type": "bool"
        }
      ],
      "stateMutability": "view",
      "type": "function"
    },
    {
      "inputs": [],
      "name": "symbol",
      "outputs": [
        {
          "internalType": "string",
          "name": "",
          "type": "string"
        }
      ],
      "stateMutability": "view",
      "type": "function"
    },
    {
      "inputs": [
        {
          "internalType": "uint256",
          "name": "tokenId",
          "type": "uint256"
        }
      ],
      "name": "tokenURI",
      "outputs": [
        {
          "internalType": "string",
          "name": "",
          "type": "string"
        }
      ],
      "stateMutability": "view",
      "type": "function"
    },
    {
      "inputs": [
        {
          "internalType": "address",
          "name": "from",
          "type": "address"
        },
        {
          "internalType": "address",
          "name": "to",
          "type": "address"
        },
        {
          "internalType": "uint256",
          "name": "tokenId",
          "type": "uint256"
        }
      ],
      "name": "transferFrom",
      "outputs": [],
      "stateMutability": "nonpayable",
      "type": "function"
    }
  ],
  "transactionHash": "0x4e521991e2bf63785183527b8e0a1327a44dac8c3b8e23404d44dda49e3ca5d1",
  "args": [],
  "numDeployments": 1,
  "solcInputHash": "d7e4a32af01e3655ee902f83d4edbc64",
  "bytecode": "0x60806040523480156200001157600080fd5b506040518060400160405280600a81526020017f4c6f6f7053747564696f000000000000000000000000000000000000000000008152506040518060400160405280600481526020017f4c4f4f500000000000000000000000000000000000000000000000000000000081525081600090816200008f91906200032c565b508060019081620000a191906200032c565b505050600060078190555062000413565b600081519050919050565b7f4e487b7100000000000000000000000000000000000000000000000000000000600052604160045260246000fd5b7f4e487b7100000000000000000000000000000000000000000000000000000000600052602260045260246000fd5b600060028204905060018216806200013457607f821691505b6020821081036200014a5762000149620000ec565b5b50919050565b60008190508160005260206000209050919050565b60006020601f8301049050919050565b600082821b905092915050565b600060088302620001b47fffffffffffffffffffffffffffffffffffffffffffffffffffffffffffffffff8262000175565b620001c0868362000175565b95508019841693508086168417925050509392505050565b6000819050919050565b6000819050919050565b60006200020d620002076200020184620001d8565b620001e2565b620001d8565b9050919050565b6000819050919050565b6200022983620001ec565b62000241620002388262000214565b84845462000182565b825550505050565b600090565b6200025862000249565b620002658184846200021e565b505050565b5b818110156200028d57620002816000826200024e565b6001810190506200026b565b5050565b601f821115620002dc57620002a68162000150565b620002b18462000165565b81016020851015620002c1578190505b620002d9620002d08562000165565b8301826200026a565b50505b505050565b600082821c905092915050565b60006200030160001984600802620002e1565b1980831691505092915050565b60006200031c8383620002ee565b9150826002028217905092915050565b6200033782620000b2565b67ffffffffffffffff811115620003535762000352620000bd565b5b6200035f82546200011b565b6200036c82828562000291565b600060209050601f831160018114620003a457600084156200038f578287015190505b6200039b85826200030e565b8655506200040b565b601f198416620003b48662000150565b60005b82811015620003de57848901518255600182019150602085019450602081019050620003b7565b86831015620003fe5784890151620003fa601f891682620002ee565b8355505b6001600288020188555050505b505050505050565b612add80620004236000396000f3fe608060405234801561001057600080fd5b50600436106100f55760003560e01c80636e02007d11610097578063b88d4fde11610066578063b88d4fde14610284578063c87b56dd146102a0578063d85d3d27146102d0578063e985e9c514610300576100f5565b80636e02007d146101fc57806370a082311461021a57806395d89b411461024a578063a22cb46514610268576100f5565b8063095ea7b3116100d3578063095ea7b31461017857806323b872dd1461019457806342842e0e146101b05780636352211e146101cc576100f5565b806301ffc9a7146100fa57806306fdde031461012a578063081812fc14610148575b600080fd5b610114600480360381019061010f9190611844565b610330565b604051610121919061188c565b60405180910390f35b610132610412565b60405161013f9190611940565b60405180910390f35b610162600480360381019061015d9190611998565b6104a4565b60405161016f9190611a06565b60405180910390f35b610192600480360381019061018d9190611a4d565b6104ea565b005b6101ae60048036038101906101a99190611a8d565b610601565b005b6101ca60048036038101906101c59190611a8d565b610661565b005b6101e660048036038101906101e19190611998565b610681565b6040516101f39190611a06565b60405180910390f35b610204610732565b6040516102119190611aef565b60405180910390f35b610234600480360381019061022f9190611b0a565b61073c565b6040516102419190611aef565b60405180910390f35b6102526107f3565b60405161025f9190611940565b60405180910390f35b610282600480360381019061027d9190611b63565b610885565b005b61029e60048036038101906102999190611cd8565b61089b565b005b6102ba60048036038101906102b59190611998565b6108fd565b6040516102c79190611940565b60405180910390f35b6102ea60048036038101906102e59190611dfc565b610a0f565b6040516102f79190611aef565b60405180910390f35b61031a60048036038101906103159190611e45565b610a4d565b604051610327919061188c565b60405180910390f35b60007f80ac58cd000000000000000000000000000000000000000000000000000000007bffffffffffffffffffffffffffffffffffffffffffffffffffffffff1916827bffffffffffffffffffffffffffffffffffffffffffffffffffffffff191614806103fb57507f5b5e139f000000000000000000000000000000000000000000000000000000007bffffffffffffffffffffffffffffffffffffffffffffffffffffffff1916827bffffffffffffffffffffffffffffffffffffffffffffffffffffffff1916145b8061040b575061040a82610ae1565b5b9050919050565b60606000805461042190611eb4565b80601f016020809104026020016040519081016040528092919081815260200182805461044d90611eb4565b801561049a5780601f1061046f5761010080835404028352916020019161049a565b820191906000526020600020905b81548152906001019060200180831161047d57829003601f168201915b5050505050905090565b60006104af82610b4b565b6004600083815260200190815260200160002060009054906101000a900473ffffffffffffffffffffffffffffffffffffffff169050919050565b60006104f582610681565b90508073ffffffffffffffffffffffffffffffffffffffff168373ffffffffffffffffffffffffffffffffffffffff1603610565576040517f08c379a000000000000000000000000000000000000000000000000000000000815260040161055c90611f57565b60405180910390fd5b8073ffffffffffffffffffffffffffffffffffffffff16610584610b96565b73ffffffffffffffffffffffffffffffffffffffff1614806105b357506105b2816105ad610b96565b610a4d565b5b6105f2576040517f08c379a00000000000000000000000000000000000000000000000000000000081526004016105e990611fe9565b60405180910390fd5b6105fc8383610b9e565b505050565b61061261060c610b96565b82610c57565b610651576040517f08c379a00000000000000000000000000000000000000000000000000000000081526004016106489061207b565b60405180910390fd5b61065c838383610cec565b505050565b61067c8383836040518060200160405280600081525061089b565b505050565b6000806002600084815260200190815260200160002060009054906101000a900473ffffffffffffffffffffffffffffffffffffffff169050600073ffffffffffffffffffffffffffffffffffffffff168173ffffffffffffffffffffffffffffffffffffffff1603610729576040517f08c379a0000000000000000000000000000000000000000000000000000000008152600401610720906120e7565b60405180910390fd5b80915050919050565b6000600754905090565b60008073ffffffffffffffffffffffffffffffffffffffff168273ffffffffffffffffffffffffffffffffffffffff16036107ac576040517f08c379a00000000000000000000000000000000000000000000000000000000081526004016107a390612179565b60405180910390fd5b600360008373ffffffffffffffffffffffffffffffffffffffff1673ffffffffffffffffffffffffffffffffffffffff168152602001908152602001600020549050919050565b60606001805461080290611eb4565b80601f016020809104026020016040519081016040528092919081815260200182805461082e90611eb4565b801561087b5780601f106108505761010080835404028352916020019161087b565b820191906000526020600020905b81548152906001019060200180831161085e57829003601f168201915b5050505050905090565b610897610890610b96565b8383610f52565b5050565b6108ac6108a6610b96565b83610c57565b6108eb576040517f08c379a00000000000000000000000000000000000000000000000000000000081526004016108e29061207b565b60405180910390fd5b6108f7848484846110be565b50505050565b606061090882610b4b565b600060066000848152602001908152602001600020805461092890611eb4565b80601f016020809104026020016040519081016040528092919081815260200182805461095490611eb4565b80156109a15780601f10610976576101008083540402835291602001916109a1565b820191906000526020600020905b81548152906001019060200180831161098457829003601f168201915b5050505050905060006109b261111a565b905060008151036109c7578192505050610a0a565b6000825111156109fc5780826040516020016109e49291906121d5565b60405160208183030381529060405292505050610a0a565b610a0584611131565b925050505b919050565b6000610a1d33600754611199565b610a29600754836111b7565b600160076000828254610a3c9190612228565b925050819055506007549050919050565b6000600560008473ffffffffffffffffffffffffffffffffffffffff1673ffffffffffffffffffffffffffffffffffffffff16815260200190815260200160002060008373ffffffffffffffffffffffffffffffffffffffff1673ffffffffffffffffffffffffffffffffffffffff16815260200190815260200160002060009054906101000a900460ff16905092915050565b60007f01ffc9a7000000000000000000000000000000000000000000000000000000007bffffffffffffffffffffffffffffffffffffffffffffffffffffffff1916827bffffffffffffffffffffffffffffffffffffffffffffffffffffffff1916149050919050565b610b5481611224565b610b93576040517f08c379a0000000000000000000000000000000000000000000000000000000008152600401610b8a906120e7565b60405180910390fd5b50565b600033905090565b816004600083815260200190815260200160002060006101000a81548173ffffffffffffffffffffffffffffffffffffffff021916908373ffffffffffffffffffffffffffffffffffffffff160217905550808273ffffffffffffffffffffffffffffffffffffffff16610c1183610681565b73ffffffffffffffffffffffffffffffffffffffff167f8c5be1e5ebec7d5bd14f71427d1e84f3dd0314c0f7b2291e5b200ac8c7c3b92560405160405180910390a45050565b600080610c6383610681565b90508073ffffffffffffffffffffffffffffffffffffffff168473ffffffffffffffffffffffffffffffffffffffff161480610ca55750610ca48185610a4d565b5b80610ce357508373ffffffffffffffffffffffffffffffffffffffff16610ccb846104a4565b73ffffffffffffffffffffffffffffffffffffffff16145b91505092915050565b8273ffffffffffffffffffffffffffffffffffffffff16610d0c82610681565b73ffffffffffffffffffffffffffffffffffffffff1614610d62576040517f08c379a0000000000000000000000000000000000000000000000000000000008152600401610d59906122f0565b60405180910390fd5b600073ffffffffffffffffffffffffffffffffffffffff168273ffffffffffffffffffffffffffffffffffffffff1603610dd1576040517f08c379a0000000000000000000000000000000000000000000000000000000008152600401610dc890612382565b60405180910390fd5b610ddc838383611290565b610de7600082610b9e565b6001600360008573ffffffffffffffffffffffffffffffffffffffff1673ffffffffffffffffffffffffffffffffffffffff1681526020019081526020016000206000828254610e3791906123a2565b925050819055506001600360008473ffffffffffffffffffffffffffffffffffffffff1673ffffffffffffffffffffffffffffffffffffffff1681526020019081526020016000206000828254610e8e9190612228565b92505081905550816002600083815260200190815260200160002060006101000a81548173ffffffffffffffffffffffffffffffffffffffff021916908373ffffffffffffffffffffffffffffffffffffffff160217905550808273ffffffffffffffffffffffffffffffffffffffff168473ffffffffffffffffffffffffffffffffffffffff167fddf252ad1be2c89b69c2b068fc378daa952ba7f163c4a11628f55a4df523b3ef60405160405180910390a4610f4d838383611295565b505050565b8173ffffffffffffffffffffffffffffffffffffffff168373ffffffffffffffffffffffffffffffffffffffff1603610fc0576040517f08c379a0000000000000000000000000000000000000000000000000000000008152600401610fb790612422565b60405180910390fd5b80600560008573ffffffffffffffffffffffffffffffffffffffff1673ffffffffffffffffffffffffffffffffffffffff16815260200190815260200160002060008473ffffffffffffffffffffffffffffffffffffffff1673ffffffffffffffffffffffffffffffffffffffff16815260200190815260200160002060006101000a81548160ff0219169083151502179055508173ffffffffffffffffffffffffffffffffffffffff168373ffffffffffffffffffffffffffffffffffffffff167f17307eab39ab6107e8899845ad3d59bd9653f200f220920489ca2b5937696c31836040516110b1919061188c565b60405180910390a3505050565b6110c9848484610cec565b6110d58484848461129a565b611114576040517f08c379a000000000000000000000000000000000000000000000000000000000815260040161110b906124b4565b60405180910390fd5b50505050565b606060405180602001604052806000815250905090565b606061113c82610b4b565b600061114661111a565b905060008151116111665760405180602001604052806000815250611191565b8061117084611421565b6040516020016111819291906121d5565b6040516020818303038152906040525b915050919050565b6111b3828260405180602001604052806000815250611581565b5050565b6111c082611224565b6111ff576040517f08c379a00000000000000000000000000000000000000000000000000000000081526004016111f690612546565b60405180910390fd5b8060066000848152602001908152602001600020908161121f9190612712565b505050565b60008073ffffffffffffffffffffffffffffffffffffffff166002600084815260200190815260200160002060009054906101000a900473ffffffffffffffffffffffffffffffffffffffff1673ffffffffffffffffffffffffffffffffffffffff1614159050919050565b505050565b505050565b60006112bb8473ffffffffffffffffffffffffffffffffffffffff166115dc565b15611414578373ffffffffffffffffffffffffffffffffffffffff1663150b7a026112e4610b96565b8786866040518563ffffffff1660e01b81526004016113069493929190612839565b6020604051808303816000875af192505050801561134257506040513d601f19601f8201168201806040525081019061133f919061289a565b60015b6113c4573d8060008114611372576040519150601f19603f3d011682016040523d82523d6000602084013e611377565b606091505b5060008151036113bc576040517f08c379a00000000000000000000000000000000000000000000000000000000081526004016113b3906124b4565b60405180910390fd5b805181602001fd5b63150b7a0260e01b7bffffffffffffffffffffffffffffffffffffffffffffffffffffffff1916817bffffffffffffffffffffffffffffffffffffffffffffffffffffffff191614915050611419565b600190505b949350505050565b606060008203611468576040518060400160405280600181526020017f3000000000000000000000000000000000000000000000000000000000000000815250905061157c565b600082905060005b6000821461149a578080611483906128c7565b915050600a82611493919061293e565b9150611470565b60008167ffffffffffffffff8111156114b6576114b5611bad565b5b6040519080825280601f01601f1916602001820160405280156114e85781602001600182028036833780820191505090505b5090505b600085146115755760018261150191906123a2565b9150600a85611510919061296f565b603061151c9190612228565b60f81b818381518110611532576115316129a0565b5b60200101907effffffffffffffffffffffffffffffffffffffffffffffffffffffffffffff1916908160001a905350600a8561156e919061293e565b94506114ec565b8093505050505b919050565b61158b83836115ff565b611598600084848461129a565b6115d7576040517f08c379a00000000000000000000000000000000000000000000000000000000081526004016115ce906124b4565b60405180910390fd5b505050565b6000808273ffffffffffffffffffffffffffffffffffffffff163b119050919050565b600073ffffffffffffffffffffffffffffffffffffffff168273ffffffffffffffffffffffffffffffffffffffff160361166e576040517f08c379a000000000000000000000000000000000000000000000000000000000815260040161166590612a1b565b60405180910390fd5b61167781611224565b156116b7576040517f08c379a00000000000000000000000000000000000000000000000000000000081526004016116ae90612a87565b60405180910390fd5b6116c360008383611290565b6001600360008473ffffffffffffffffffffffffffffffffffffffff1673ffffffffffffffffffffffffffffffffffffffff16815260200190815260200160002060008282546117139190612228565b92505081905550816002600083815260200190815260200160002060006101000a81548173ffffffffffffffffffffffffffffffffffffffff021916908373ffffffffffffffffffffffffffffffffffffffff160217905550808273ffffffffffffffffffffffffffffffffffffffff16600073ffffffffffffffffffffffffffffffffffffffff167fddf252ad1be2c89b69c2b068fc378daa952ba7f163c4a11628f55a4df523b3ef60405160405180910390a46117d460008383611295565b5050565b6000604051905090565b600080fd5b600080fd5b60007fffffffff0000000000000000000000000000000000000000000000000000000082169050919050565b611821816117ec565b811461182c57600080fd5b50565b60008135905061183e81611818565b92915050565b60006020828403121561185a576118596117e2565b5b60006118688482850161182f565b91505092915050565b60008115159050919050565b61188681611871565b82525050565b60006020820190506118a1600083018461187d565b92915050565b600081519050919050565b600082825260208201905092915050565b60005b838110156118e15780820151818401526020810190506118c6565b838111156118f0576000848401525b50505050565b6000601f19601f8301169050919050565b6000611912826118a7565b61191c81856118b2565b935061192c8185602086016118c3565b611935816118f6565b840191505092915050565b6000602082019050818103600083015261195a8184611907565b905092915050565b6000819050919050565b61197581611962565b811461198057600080fd5b50565b6000813590506119928161196c565b92915050565b6000602082840312156119ae576119ad6117e2565b5b60006119bc84828501611983565b91505092915050565b600073ffffffffffffffffffffffffffffffffffffffff82169050919050565b60006119f0826119c5565b9050919050565b611a00816119e5565b82525050565b6000602082019050611a1b60008301846119f7565b92915050565b611a2a816119e5565b8114611a3557600080fd5b50565b600081359050611a4781611a21565b92915050565b60008060408385031215611a6457611a636117e2565b5b6000611a7285828601611a38565b9250506020611a8385828601611983565b9150509250929050565b600080600060608486031215611aa657611aa56117e2565b5b6000611ab486828701611a38565b9350506020611ac586828701611a38565b9250506040611ad686828701611983565b9150509250925092565b611ae981611962565b82525050565b6000602082019050611b046000830184611ae0565b92915050565b600060208284031215611b2057611b1f6117e2565b5b6000611b2e84828501611a38565b91505092915050565b611b4081611871565b8114611b4b57600080fd5b50565b600081359050611b5d81611b37565b92915050565b60008060408385031215611b7a57611b796117e2565b5b6000611b8885828601611a38565b9250506020611b9985828601611b4e565b9150509250929050565b600080fd5b600080fd5b7f4e487b7100000000000000000000000000000000000000000000000000000000600052604160045260246000fd5b611be5826118f6565b810181811067ffffffffffffffff82111715611c0457611c03611bad565b5b80604052505050565b6000611c176117d8565b9050611c238282611bdc565b919050565b600067ffffffffffffffff821115611c4357611c42611bad565b5b611c4c826118f6565b9050602081019050919050565b82818337600083830152505050565b6000611c7b611c7684611c28565b611c0d565b905082815260208101848484011115611c9757611c96611ba8565b5b611ca2848285611c59565b509392505050565b600082601f830112611cbf57611cbe611ba3565b5b8135611ccf848260208601611c68565b91505092915050565b60008060008060808587031215611cf257611cf16117e2565b5b6000611d0087828801611a38565b9450506020611d1187828801611a38565b9350506040611d2287828801611983565b925050606085013567ffffffffffffffff811115611d4357611d426117e7565b5b611d4f87828801611caa565b91505092959194509250565b600067ffffffffffffffff821115611d7657611d75611bad565b5b611d7f826118f6565b9050602081019050919050565b6000611d9f611d9a84611d5b565b611c0d565b905082815260208101848484011115611dbb57611dba611ba8565b5b611dc6848285611c59565b509392505050565b600082601f830112611de357611de2611ba3565b5b8135611df3848260208601611d8c565b91505092915050565b600060208284031215611e1257611e116117e2565b5b600082013567ffffffffffffffff811115611e3057611e2f6117e7565b5b611e3c84828501611dce565b91505092915050565b60008060408385031215611e5c57611e5b6117e2565b5b6000611e6a85828601611a38565b9250506020611e7b85828601611a38565b9150509250929050565b7f4e487b7100000000000000000000000000000000000000000000000000000000600052602260045260246000fd5b60006002820490506001821680611ecc57607f821691505b602082108103611edf57611ede611e85565b5b50919050565b7f4552433732313a20617070726f76616c20746f2063757272656e74206f776e6560008201527f7200000000000000000000000000000000000000000000000000000000000000602082015250565b6000611f416021836118b2565b9150611f4c82611ee5565b604082019050919050565b60006020820190508181036000830152611f7081611f34565b9050919050565b7f4552433732313a20617070726f76652063616c6c6572206973206e6f7420746f60008201527f6b656e206f776e6572206e6f7220617070726f76656420666f7220616c6c0000602082015250565b6000611fd3603e836118b2565b9150611fde82611f77565b604082019050919050565b6000602082019050818103600083015261200281611fc6565b9050919050565b7f4552433732313a2063616c6c6572206973206e6f7420746f6b656e206f776e6560008201527f72206e6f7220617070726f766564000000000000000000000000000000000000602082015250565b6000612065602e836118b2565b915061207082612009565b604082019050919050565b6000602082019050818103600083015261209481612058565b9050919050565b7f4552433732313a20696e76616c696420746f6b656e2049440000000000000000600082015250565b60006120d16018836118b2565b91506120dc8261209b565b602082019050919050565b60006020820190508181036000830152612100816120c4565b9050919050565b7f4552433732313a2061646472657373207a65726f206973206e6f74206120766160008201527f6c6964206f776e65720000000000000000000000000000000000000000000000602082015250565b60006121636029836118b2565b915061216e82612107565b604082019050919050565b6000602082019050818103600083015261219281612156565b9050919050565b600081905092915050565b60006121af826118a7565b6121b98185612199565b93506121c98185602086016118c3565b80840191505092915050565b60006121e182856121a4565b91506121ed82846121a4565b91508190509392505050565b7f4e487b7100000000000000000000000000000000000000000000000000000000600052601160045260246000fd5b600061223382611962565b915061223e83611962565b9250827fffffffffffffffffffffffffffffffffffffffffffffffffffffffffffffffff03821115612273576122726121f9565b5b828201905092915050565b7f4552433732313a207472616e736665722066726f6d20696e636f72726563742060008201527f6f776e6572000000000000000000000000000000000000000000000000000000602082015250565b60006122da6025836118b2565b91506122e58261227e565b604082019050919050565b60006020820190508181036000830152612309816122cd565b9050919050565b7f4552433732313a207472616e7366657220746f20746865207a65726f2061646460008201527f7265737300000000000000000000000000000000000000000000000000000000602082015250565b600061236c6024836118b2565b915061237782612310565b604082019050919050565b6000602082019050818103600083015261239b8161235f565b9050919050565b60006123ad82611962565b91506123b883611962565b9250828210156123cb576123ca6121f9565b5b828203905092915050565b7f4552433732313a20617070726f766520746f2063616c6c657200000000000000600082015250565b600061240c6019836118b2565b9150612417826123d6565b602082019050919050565b6000602082019050818103600083015261243b816123ff565b9050919050565b7f4552433732313a207472616e7366657220746f206e6f6e20455243373231526560008201527f63656976657220696d706c656d656e7465720000000000000000000000000000602082015250565b600061249e6032836118b2565b91506124a982612442565b604082019050919050565b600060208201905081810360008301526124cd81612491565b9050919050565b7f45524337323155524953746f726167653a2055524920736574206f66206e6f6e60008201527f6578697374656e7420746f6b656e000000000000000000000000000000000000602082015250565b6000612530602e836118b2565b915061253b826124d4565b604082019050919050565b6000602082019050818103600083015261255f81612523565b9050919050565b60008190508160005260206000209050919050565b60006020601f8301049050919050565b600082821b905092915050565b6000600883026125c87fffffffffffffffffffffffffffffffffffffffffffffffffffffffffffffffff8261258b565b6125d2868361258b565b95508019841693508086168417925050509392505050565b6000819050919050565b600061260f61260a61260584611962565b6125ea565b611962565b9050919050565b6000819050919050565b612629836125f4565b61263d61263582612616565b848454612598565b825550505050565b600090565b612652612645565b61265d818484612620565b505050565b5b818110156126815761267660008261264a565b600181019050612663565b5050565b601f8211156126c65761269781612566565b6126a08461257b565b810160208510156126af578190505b6126c36126bb8561257b565b830182612662565b50505b505050565b600082821c905092915050565b60006126e9600019846008026126cb565b1980831691505092915050565b600061270283836126d8565b9150826002028217905092915050565b61271b826118a7565b67ffffffffffffffff81111561273457612733611bad565b5b61273e8254611eb4565b612749828285612685565b600060209050601f83116001811461277c576000841561276a578287015190505b61277485826126f6565b8655506127dc565b601f19841661278a86612566565b60005b828110156127b25784890151825560018201915060208501945060208101905061278d565b868310156127cf57848901516127cb601f8916826126d8565b8355505b6001600288020188555050505b505050505050565b600081519050919050565b600082825260208201905092915050565b600061280b826127e4565b61281581856127ef565b93506128258185602086016118c3565b61282e816118f6565b840191505092915050565b600060808201905061284e60008301876119f7565b61285b60208301866119f7565b6128686040830185611ae0565b818103606083015261287a8184612800565b905095945050505050565b60008151905061289481611818565b92915050565b6000602082840312156128b0576128af6117e2565b5b60006128be84828501612885565b91505092915050565b60006128d282611962565b91507fffffffffffffffffffffffffffffffffffffffffffffffffffffffffffffffff8203612904576129036121f9565b5b600182019050919050565b7f4e487b7100000000000000000000000000000000000000000000000000000000600052601260045260246000fd5b600061294982611962565b915061295483611962565b9250826129645761296361290f565b5b828204905092915050565b600061297a82611962565b915061298583611962565b9250826129955761299461290f565b5b828206905092915050565b7f4e487b7100000000000000000000000000000000000000000000000000000000600052603260045260246000fd5b7f4552433732313a206d696e7420746f20746865207a65726f2061646472657373600082015250565b6000612a056020836118b2565b9150612a10826129cf565b602082019050919050565b60006020820190508181036000830152612a34816129f8565b9050919050565b7f4552433732313a20746f6b656e20616c7265616479206d696e74656400000000600082015250565b6000612a71601c836118b2565b9150612a7c82612a3b565b602082019050919050565b60006020820190508181036000830152612aa081612a64565b905091905056fea26469706673582212203147615e4c75d4cca57e4e0031ffc3539a67d16682ac1396fe125e76aac0bef664736f6c634300080f0033",
  "devdoc": {
    "kind": "dev",
    "methods": {
      "approve(address,uint256)": {
        "details": "See {IERC721-approve}."
      },
      "balanceOf(address)": {
        "details": "See {IERC721-balanceOf}."
      },
      "getApproved(uint256)": {
        "details": "See {IERC721-getApproved}."
      },
      "isApprovedForAll(address,address)": {
        "details": "See {IERC721-isApprovedForAll}."
      },
      "name()": {
        "details": "See {IERC721Metadata-name}."
      },
      "ownerOf(uint256)": {
        "details": "See {IERC721-ownerOf}."
      },
      "safeTransferFrom(address,address,uint256)": {
        "details": "See {IERC721-safeTransferFrom}."
      },
      "safeTransferFrom(address,address,uint256,bytes)": {
        "details": "See {IERC721-safeTransferFrom}."
      },
      "setApprovalForAll(address,bool)": {
        "details": "See {IERC721-setApprovalForAll}."
      },
      "supportsInterface(bytes4)": {
        "details": "See {IERC165-supportsInterface}."
      },
      "symbol()": {
        "details": "See {IERC721Metadata-symbol}."
      },
      "tokenURI(uint256)": {
        "details": "See {IERC721Metadata-tokenURI}."
      },
      "transferFrom(address,address,uint256)": {
        "details": "See {IERC721-transferFrom}."
      }
    },
    "version": 1
  },
  "userdoc": {
    "kind": "user",
    "methods": {},
    "version": 1
  },
  "storageLayout": {
    "storage": [
      {
        "astId": 25,
        "contract": "contracts/LoopStudioNFT.sol:LoopStudioNFT",
        "label": "_name",
        "offset": 0,
        "slot": "0",
        "type": "t_string_storage"
      },
      {
        "astId": 27,
        "contract": "contracts/LoopStudioNFT.sol:LoopStudioNFT",
        "label": "_symbol",
        "offset": 0,
        "slot": "1",
        "type": "t_string_storage"
      },
      {
        "astId": 31,
        "contract": "contracts/LoopStudioNFT.sol:LoopStudioNFT",
        "label": "_owners",
        "offset": 0,
        "slot": "2",
        "type": "t_mapping(t_uint256,t_address)"
      },
      {
        "astId": 35,
        "contract": "contracts/LoopStudioNFT.sol:LoopStudioNFT",
        "label": "_balances",
        "offset": 0,
        "slot": "3",
        "type": "t_mapping(t_address,t_uint256)"
      },
      {
        "astId": 39,
        "contract": "contracts/LoopStudioNFT.sol:LoopStudioNFT",
        "label": "_tokenApprovals",
        "offset": 0,
        "slot": "4",
        "type": "t_mapping(t_uint256,t_address)"
      },
      {
        "astId": 45,
        "contract": "contracts/LoopStudioNFT.sol:LoopStudioNFT",
        "label": "_operatorApprovals",
        "offset": 0,
        "slot": "5",
        "type": "t_mapping(t_address,t_mapping(t_address,t_bool))"
      },
      {
        "astId": 1012,
        "contract": "contracts/LoopStudioNFT.sol:LoopStudioNFT",
        "label": "_tokenURIs",
        "offset": 0,
        "slot": "6",
        "type": "t_mapping(t_uint256,t_string_storage)"
      },
      {
        "astId": 1737,
        "contract": "contracts/LoopStudioNFT.sol:LoopStudioNFT",
        "label": "tokenCounter",
        "offset": 0,
        "slot": "7",
        "type": "t_uint256"
      }
    ],
    "types": {
      "t_address": {
        "encoding": "inplace",
        "label": "address",
        "numberOfBytes": "20"
      },
      "t_bool": {
        "encoding": "inplace",
        "label": "bool",
        "numberOfBytes": "1"
      },
      "t_mapping(t_address,t_bool)": {
        "encoding": "mapping",
        "key": "t_address",
        "label": "mapping(address => bool)",
        "numberOfBytes": "32",
        "value": "t_bool"
      },
      "t_mapping(t_address,t_mapping(t_address,t_bool))": {
        "encoding": "mapping",
        "key": "t_address",
        "label": "mapping(address => mapping(address => bool))",
        "numberOfBytes": "32",
        "value": "t_mapping(t_address,t_bool)"
      },
      "t_mapping(t_address,t_uint256)": {
        "encoding": "mapping",
        "key": "t_address",
        "label": "mapping(address => uint256)",
        "numberOfBytes": "32",
        "value": "t_uint256"
      },
      "t_mapping(t_uint256,t_address)": {
        "encoding": "mapping",
        "key": "t_uint256",
        "label": "mapping(uint256 => address)",
        "numberOfBytes": "32",
        "value": "t_address"
      },
      "t_mapping(t_uint256,t_string_storage)": {
        "encoding": "mapping",
        "key": "t_uint256",
        "label": "mapping(uint256 => string)",
        "numberOfBytes": "32",
        "value": "t_string_storage"
      },
      "t_string_storage": {
        "encoding": "bytes",
        "label": "string",
        "numberOfBytes": "32"
      },
      "t_uint256": {
        "encoding": "inplace",
        "label": "uint256",
        "numberOfBytes": "32"
      }
    }
  }
}